:020000040800F2
:100000007006002099020008750500086D050008BB
:100010007105000849050008990500080000000066
:100020000000000000000000000000007D05000846
:100030004D05000800000000790500088105000852
:10004000B3020008B3020008B3020008B3020008BC
:10005000B3020008B3020008B3020008B3020008AC
:10006000B3020008B3020008B3020008B30200089C
:10007000B3020008B3020008B3020008B30200088C
:10008000B3020008B3020008B3020008B30200087C
:10009000B3020008B3020008B3020008B30200086C
:1000A000B3020008B3020008B3020008B30200085C
:1000B000B3020008B3020008B3020008B30200084C
:1000C000B3020008B3020008B3020008B30200083C
:1000D000B3020008B3020008B3020008B30200082C
:1000E000B3020008B3020008B3020008B30200081C
:1000F000B3020008B3020008B3020008B30200080C
:10010000B3020008B3020008B3020008B3020008FB
:10011000B3020008B3020008B3020008B3020008EB
:10012000B3020008B3020008B3020008B3020008DB
:10013000B30200080000000000000000B302000845
:10014000B3020008B3020008B3020008B3020008BB
:10015000B3020008B3020008B3020008B3020008AB
:10016000B3020008B3020008B3020008B30200089B
:10017000B3020008B3020008B30200080000000048
:1001800000000000B30200080000000000000000B2
:10019000B30200080000000000000000B3020008E5
:1001A000000000000000000000000000B302000892
:1001B000B3020008B3020008B3020008B30200084B
:1001C000B302000800F002F800F057F814A696E811
:1001D000000CB244B344DA4501D100F04EF8BAE85D
:1001E0000F000FA696E83000A5EB040504EB060708
:1001F000AAEB0704A7F101074FEA15154FEA3414DB
:10020000A4F10104AC4201D300F037F813F0010F60
:1002100018BFFB1A43F0010300F001F8DBE71847B1
:100220004C0C00006C0C0000103A24BF78C878C158
:10023000FAD8520724BF30C830C144BF04680C60EC
:1002400070470000704700000023002400250026AE
:10025000103A28BF78C1FBD8520728BF30C148BF29
:100260000B607047642900F07F80002070471FB545
:1002700000F0EEFD1FBD10B510BD00F02AF91146CB
:10028000FFF7F5FF00F08AF900F048F903B4FFF733
:10029000F2FF03BC00F050F90948804709480047C5
:1002A000FEE7FEE7FEE7FEE7FEE7FEE7FEE7FEE726
:1002B000FEE7FEE704480549054A064B7047000083
:1002C00085050008C50100087000002070060020A8
:1002D00070020020700200200FB41CB5074B06AA64
:1002E0007B4469460090059800F0DBF800206946E1
:1002F00000F0EAF81CBC5DF814FB0000E50100000A
:100300002DE9F0410E460446002020622046E168B7
:10031000884730B3252805D0D4E901219047206AC9
:10032000401CF2E7E168204600278847050018D006
:10033000A5F14100192802D820354FF40067324654
:10034000294620462760FFF78DFF40B1012804D0E1
:10035000F61D26F007060836D8E7361DD6E72846EC
:10036000DAE7206ABDE8F0812DE9F0410646002475
:1003700010687529314616A510D0AFF3008000280B
:1003800002DA404213A507E031688A0701D512A5B9
:1003900002E0490704D511A5012401E0AFF3008074
:1003A00000210A2206F1240709E0B0FBF2FCB0FBB1
:1003B000F2F302FB1C00303078541846491C002828
:1003C000F3D123462A463046BDE8F04100F00BB891
:1003D000000000002D0000002B00000020000000A5
:1003E0007047704770472DE9F0470D469946924691
:1003F000044600F124080168880604D5E06921F06C
:100400001001216000E00120A84201DD471B00E04F
:100410000027A1697A1902EB0900081AA061207867
:10042000C00602D42046AFF30080002608E0D4E9DD
:1004300001211AF806009047206A401C761C2062B1
:100440004E45F4DB2078C0060AD52046AFF3008085
:1004500006E0D4E9012130209047206A401C206248
:10046000381EA7F10107F4DC07E0D4E9012118F8F0
:1004700005009047206A401C2062281EA5F1010556
:10048000F3DC2046AFF300802078000602D502207E
:10049000BDE8F0870120FBE701694A1C026108788A
:1004A000704700B58FB0CDE90131002105910549B4
:1004B0007944CDE9031011466846FFF721FF0FB0DC
:1004C00000BD0000E5FFFFFF0A6802F8010B0A60AB
:1004D0007047754600F02CF8AE4605006946534655
:1004E00020F00700854618B020B5FFF7E3FEBDE811
:1004F00020404FF000064FF000074FF000084FF08B
:10050000000BAC46ACE8C009ACE8C009ACE8C009D7
:10051000ACE8C00921F007018D46704710B50446CC
:10052000AFF300802046BDE81040FFF7AFBE0000EB
:10053000004870470800002001491820ABBEFEE7C4
:100540002600020070470000FEE700007047000030
:1005500040F2000040F26801C2F20000C2F2000165
:1005600000780A681044086070470000FEE7000049
:10057000FEE70000FEE70000704700007047000043
:10058000FFF7E6BF4EF68850CEF20000016841F456
:100590007001016070470000FEE7000086B043F67E
:1005A0003000C4F20200026840F2004142F0020250
:1005B000C4F2020102600A684FF6FF739A430A60B0
:1005C0000A6845F255531A430A600A6840F2144615
:1005D00042F4A022C4F202060A60326802F47F42AA
:1005E00038323260326822F480723260326842F40B
:1005F000007232604FF4C86200BF00BF00BF00BF8E
:1006000000BF00BF00BF00BF00BF00BF00BF00BFF2
:1006100000BF00BF00BF00BF00BF00BF00BF00BFE2
:1006200000BF00BF00BF00BF00BF00BF00BF00BFD2
:1006300000BF00BF00BF00BF00BF00BF00BF00BFC2
:1006400000BF00BF00BF00BF00BF00BF00BF00BFB2
:1006500000BF00BF00BF00BF00BF00BF00BF00BFA2
:1006600000BF00BF00BF00BF00BF00BF00BF00BF92
:1006700000BF00BF00BF403A00BFBDD1326822F4C6
:10068000007232604FF4486200BF00BF00BF00BF7D
:1006900000BF00BF00BF00BF00BF00BF00BF00BF62
:1006A00000BF00BF00BF00BF00BF00BF00BF00BF52
:1006B00000BF00BF00BF00BF00BF00BF00BF00BF42
:1006C00000BF00BF00BF00BF00BF00BF00BF00BF32
:1006D00000BF00BF00BF00BF00BF00BF00BF00BF22
:1006E00000BF00BF00BF00BF00BF00BF00BF00BF12
:1006F00000BF00BF00BF00BF00BF00BF00BF00BF02
:1007000000BF00BF00BF403A00BFBDD1326802F455
:100710007F420C323260326822F48072326032687A
:1007200042F4007232604FF4C86200BF00BF00BFE5
:1007300000BF00BF00BF00BF00BF00BF00BF00BFC1
:1007400000BF00BF00BF00BF00BF00BF00BF00BFB1
:1007500000BF00BF00BF00BF00BF00BF00BF00BFA1
:1007600000BF00BF00BF00BF00BF00BF00BF00BF91
:1007700000BF00BF00BF00BF00BF00BF00BF00BF81
:1007800000BF00BF00BF00BF00BF00BF00BF00BF71
:1007900000BF00BF00BF00BF00BF00BF00BF00BF61
:1007A00000BF00BF00BF00BF00BF403A00BFBDD1C7
:1007B000326822F4007232604FF4486200BF00BF1A
:1007C00000BF00BF00BF00BF00BF00BF00BF00BF31
:1007D00000BF00BF00BF00BF00BF00BF00BF00BF21
:1007E00000BF00BF00BF00BF00BF00BF00BF00BF11
:1007F00000BF00BF00BF00BF00BF00BF00BF00BF01
:1008000000BF00BF00BF00BF00BF00BF00BF00BFF0
:1008100000BF00BF00BF00BF00BF00BF00BF00BFE0
:1008200000BF00BF00BF00BF00BF00BF00BF00BFD0
:1008300000BF00BF00BF00BF00BF403A00BFBDD136
:10084000326802F47F4206323260326822F48072EB
:100850003260326842F4007232604FF4C86200BF06
:1008600000BF00BF00BF00BF00BF00BF00BF00BF90
:1008700000BF00BF00BF00BF00BF00BF00BF00BF80
:1008800000BF00BF00BF00BF00BF00BF00BF00BF70
:1008900000BF00BF00BF00BF00BF00BF00BF00BF60
:1008A00000BF00BF00BF00BF00BF00BF00BF00BF50
:1008B00000BF00BF00BF00BF00BF00BF00BF00BF40
:1008C00000BF00BF00BF00BF00BF00BF00BF00BF30
:1008D00000BF00BF00BF00BF00BF00BF00BF403A65
:1008E00000BFBDD1326822F4007232604FF448621A
:1008F00000BF00BF00BF00BF00BF00BF00BF00BF00
:1009000000BF00BF00BF00BF00BF00BF00BF00BFEF
:1009100000BF00BF00BF00BF00BF00BF00BF00BFDF
:1009200000BF00BF00BF00BF00BF00BF00BF00BFCF
:1009300000BF00BF00BF00BF00BF00BF00BF00BFBF
:1009400000BF00BF00BF00BF00BF00BF00BF00BFAF
:1009500000BF00BF00BF00BF00BF00BF00BF00BF9F
:1009600000BF00BF00BF00BF00BF00BF00BF403AD4
:1009700000BFBDD1326802F47F420132326032687A
:1009800022F480723260326842F4007232604FF4B6
:10099000C86200BF00BF00BF00BF00BF00BF00BFF4
:1009A00000BF00BF00BF00BF00BF00BF00BF00BF4F
:1009B00000BF00BF00BF00BF00BF00BF00BF00BF3F
:1009C00000BF00BF00BF00BF00BF00BF00BF00BF2F
:1009D00000BF00BF00BF00BF00BF00BF00BF00BF1F
:1009E00000BF00BF00BF00BF00BF00BF00BF00BF0F
:1009F00000BF00BF00BF00BF00BF00BF00BF00BFFF
:100A000000BF00BF00BF00BF00BF00BF00BF00BFEE
:100A100000BF403A00BFBDD1326822F4007232609C
:100A20004FF4486200BF00BF00BF00BF00BF00BF5F
:100A300000BF00BF00BF00BF00BF00BF00BF00BFBE
:100A400000BF00BF00BF00BF00BF00BF00BF00BFAE
:100A500000BF00BF00BF00BF00BF00BF00BF00BF9E
:100A600000BF00BF00BF00BF00BF00BF00BF00BF8E
:100A700000BF00BF00BF00BF00BF00BF00BF00BF7E
:100A800000BF00BF00BF00BF00BF00BF00BF00BF6E
:100A900000BF00BF00BF00BF00BF00BF00BF00BF5E
:100AA00000BF403A00BFBDD1026842F2000742F0E9
:100AB000010202604FF60042CFF6FF728B58C4F27B
:100AC000010743F003038B504FF60C42CFF6FF7241
:100AD0008B5846F6002423F003038B5041690FF234
:100AE000683841F4807141610020B860396901AD16
:100AF00041F0070139617863B868C0F2180440F02A
:100B00000100B860B86840F08040B860386880077D
:100B10000AD4386880075CBF38685FEA807003D405
:100B200038688007F2D500BFF86C396882B221F0CE
:100B30000201396028464146FFF7CEFB306800F4D9
:100B40007F4080303060306820F4807030603068E2
:100B500040F4007030604FF4C86000BF00BF00BFB9
:100B600000BF00BF00BF00BF00BF00BF00BF00BF8D
:100B700000BF00BF00BF00BF00BF00BF00BF00BF7D
:100B800000BF00BF00BF00BF00BF00BF00BF00BF6D
:100B900000BF00BF00BF00BF00BF00BF00BF00BF5D
:100BA00000BF00BF00BF00BF00BF00BF00BF00BF4D
:100BB00000BF00BF00BF00BF00BF00BF00BF00BF3D
:100BC00000BF00BF00BF00BF00BF00BF00BF00BF2D
:100BD00000BF00BF00BF00BF00BF403800BFBDD195
:100BE000306820F4007030604FF4486000BF00BFF0
:100BF00000BF00BF00BF00BF00BF00BF00BF00BFFD
:100C000000BF00BF00BF00BF00BF00BF00BF00BFEC
:100C100000BF00BF00BF00BF00BF00BF00BF00BFDC
:100C200000BF00BF00BF00BF00BF00BF00BF00BFCC
:100C300000BF00BF00BF00BF00BF00BF00BF00BFBC
:100C400000BF00BF00BF00BF00BF00BF00BF00BFAC
:100C500000BF00BF00BF00BF00BF00BF00BF00BF9C
:100C600000BF00BF00BF00BF00BF403800BFBDD104
:100C70009DF80410002900F0A1800020326802F4E1
:100C80007F4211433160316841F4807131603168D5
:100C900041F4007131604FF4C86100BF00BF00BF74
:100CA00000BF00BF00BF00BF00BF00BF00BF00BF4C
:100CB00000BF00BF00BF00BF00BF00BF00BF00BF3C
:100CC00000BF00BF00BF00BF00BF00BF00BF00BF2C
:100CD00000BF00BF00BF00BF00BF00BF00BF00BF1C
:100CE00000BF00BF00BF00BF00BF00BF00BF00BF0C
:100CF00000BF00BF00BF00BF00BF00BF00BF00BFFC
:100D000000BF00BF00BF00BF00BF00BF00BF00BFEB
:100D100000BF00BF00BF00BF00BF403900BFBDD152
:100D2000316821F4007131604FF4486100BF00BFA9
:100D300000BF00BF00BF00BF00BF00BF00BF00BFBB
:100D400000BF00BF00BF00BF00BF00BF00BF00BFAB
:100D500000BF00BF00BF00BF00BF00BF00BF00BF9B
:100D600000BF00BF00BF00BF00BF00BF00BF00BF8B
:100D700000BF00BF00BF00BF00BF00BF00BF00BF7B
:100D800000BF00BF00BF00BF00BF00BF00BF00BF6B
:100D900000BF00BF00BF00BF00BF00BF00BF00BF5B
:100DA00000BF00BF00BF00BF00BF403900BFBDD1C2
:100DB0000130C1B2695C00297FF460AF204600BFFA
:100DC00000BF00BF00BF00BF00BF00BF00BF00BF2B
:100DD00000BF00BF00BF00BF00BF00BF00BF00BF1B
:100DE00000BF00BF00BF00BF00BF00BF00BF00BF0B
:100DF00000BF00BF00BF00BF00BF00BF00BF00BFFB
:100E000000BF00BF00BF00BF00BF00BF00BF00BFEA
:100E100000BF00BF00BF00BF00BF00BF00BF00BFDA
:100E200000BF00BF00BF00BF00BF00BF00BF00BFCA
:100E300000BF00BF00BF00BF00BF00BF00BF403801
:100E400000BFBDD15EE600BF4144433A20256400A7
:100E5000F1EE100A4FF6FF71C0F2C03120EA010036
:100E600040F04070E1EE100A70470000900E00085C
:100E7000000000200800000028020008980E00086A
:100E8000080000206806000048020008000000007A
:080E9000010000001000000049
:04000005080001C529
:00000001FF
