:020000040800F2
:100000007006002091020008A1030008990300086F
:100010009D0300084D030008C50300080000000010
:10002000000000000000000000000000A90300081C
:100030005103000800000000A5030008AD030008FC
:10004000AB020008AB020008AB020008AB020008DC
:10005000AB020008AB020008AB020008AB020008CC
:10006000AB020008AB020008AB020008AB020008BC
:10007000AB020008AB020008AB020008AB020008AC
:10008000AB020008AB020008AB020008AB0200089C
:10009000AB020008AB020008AB020008AB0200088C
:1000A000AB020008AB020008AB020008AB0200087C
:1000B000AB020008AB020008AB020008AB0200086C
:1000C000AB020008AB020008AB020008AB0200085C
:1000D000AB020008AB020008AB020008AB0200084C
:1000E00055030008AB020008AB020008AB02000891
:1000F000AB020008AB020008AB020008AB0200082C
:10010000AB020008AB020008AB020008AB0200081B
:10011000AB020008AB020008AB020008AB0200080B
:10012000AB020008AB020008AB020008AB020008FB
:10013000AB0200080000000000000000AB02000855
:10014000AB020008AB020008AB020008AB020008DB
:10015000AB020008AB020008AB020008AB020008CB
:10016000AB020008AB020008AB020008AB020008BB
:10017000AB020008AB020008AB0200080000000060
:1001800000000000AB0200080000000000000000BA
:10019000AB0200080000000000000000AB020008F5
:1001A000000000000000000000000000AB0200089A
:1001B000AB020008AB020008AB020008AB0200086B
:1001C000AB02000800F002F800F052F814A696E81E
:1001D000000CB244B344DA4501D100F049F8BAE862
:1001E0000F000FA696E83000A5EB040504EB060708
:1001F000AAEB0704A7F101074FEA15154FEA3414DB
:10020000A4F10104AC4201D300F032F813F0010F65
:1002100018BFFB1A43F0010300F001F8DBE71847B1
:100220008C030000AC030000103A24BF78C878C1EA
:10023000FAD8520724BF30C830C144BF04680C60EC
:1002400070470000704700000023002400250026AE
:10025000103A28BF78C1FBD8520728BF30C148BF29
:100260000B6070471FB500F094F91FBD10B510BDAD
:1002700000F031F81146FFF7F5FF00F0A5F800F0A7
:100280004FF803B4FFF7F2FF03BC00F057F800008B
:100290000948804709480047FEE7FEE7FEE7FEE71A
:1002A000FEE7FEE7FEE7FEE7FEE7FEE70448054956
:1002B000054A064B70470000B1030008C50100085D
:1002C00070000020700600207002002070020020E4
:1002D000704770477047754600F02CF8AE46050031
:1002E0006946534620F00700854618B020B5FFF751
:1002F000DDFFBDE820404FF000064FF000074FF053
:1003000000084FF0000BAC46ACE8C009ACE8C009EF
:10031000ACE8C009ACE8C00921F007018D46704780
:1003200010B50446AFF300802046BDE81040FFF74B
:10033000A8BF0000004870470800002001491820AD
:10034000ABBEFEE72600020070470000FEE700009B
:100350007047000043F61440C4F2010001688904AC
:1003600058BF70471421C4F202010A6882F02002CB
:100370000A60016841F400510160704740F20000DA
:1003800040F26801C2F20000C2F2000100780A687F
:100390001044086070470000FEE70000FEE7000020
:1003A000FEE700007047000070470000FFF7E6BF5F
:1003B0004EF68850CEF20000016841F470010160F1
:1003C00070470000FEE7000043F63001C4F202016E
:1003D000086840F001000860086840F00400086008
:1003E0004A69002042F48042C4F202004A61016876
:1003F00021F440610160016841F48061016001689D
:1004000021F003010160016841F001010160D0F8B1
:10041000001821F04061C0F8001843F61401C4F23E
:1004200001010A6822F0F0020A600A6842F0200224
:100430000A60D1F8EC2342F40052C1F8EC23D1F861
:10044000F82342F40052C1F8F8234EF20411CEF220
:1004500000014FF480720A6042F20041C0F2F401E0
:10046000426942F0010242610A4600BF00BF00BF7C
:1004700000BF00BF00BF00BF00BF00BF00BF00BF84
:1004800000BF00BF00BF00BF00BF00BF00BF00BF74
:1004900000BF00BF00BF00BF00BF00BF00BF00BF64
:1004A00000BF00BF00BF00BF00BF00BF00BF00BF54
:1004B00000BF00BF00BF00BF00BF00BF00BF00BF44
:1004C00000BF00BF00BF00BF00BF00BF00BF00BF34
:1004D00000BF00BF00BF00BF00BF00BF00BF00BF24
:1004E00000BF00BF00BF00BF00BF403A00BFBDD18A
:1004F000426922F001024261426942F00102426116
:100500000A4600BF00BF00BF00BF00BF00BF00BF62
:1005100000BF00BF00BF00BF00BF00BF00BF00BFE3
:1005200000BF00BF00BF00BF00BF00BF00BF00BFD3
:1005300000BF00BF00BF00BF00BF00BF00BF00BFC3
:1005400000BF00BF00BF00BF00BF00BF00BF00BFB3
:1005500000BF00BF00BF00BF00BF00BF00BF00BFA3
:1005600000BF00BF00BF00BF00BF00BF00BF00BF93
:1005700000BF00BF00BF00BF00BF00BF00BF00BF83
:1005800000BF403A00BFBDD1426922F00102426182
:1005900066E7F1EE100A4FF6FF71C0F2C03120EAB3
:1005A000010040F04070E1EE100A7047D0050008ED
:1005B000000000200800000028020008D8050008FC
:1005C0000800002068060000480200080000000043
:0805D000010000001000000012
:04000005080001C529
:00000001FF
