:020000040800F2
:100000007006002091020008310800087103000802
:100010002D0800084D0300085508000800000000E6
:100020000000000000000000000000003908000887
:100030005103000800000000350800083D080008D2
:10004000AB020008AB020008AB020008AB020008DC
:10005000AB020008AB020008AB020008AB020008CC
:10006000AB020008AB020008AB020008AB020008BC
:10007000AB020008AB020008AB020008AB020008AC
:10008000AB020008AB020008AB020008AB0200089C
:10009000AB020008AB020008AB020008AB0200088C
:1000A000AB020008AB020008AB020008AB0200087C
:1000B000AB020008AB020008AB020008AB0200086C
:1000C000AB020008AB020008AB020008AB0200085C
:1000D000AB020008AB020008AB020008AB0200084C
:1000E000AB020008AB020008AB020008AB0200083C
:1000F000AB020008AB020008AB020008AB0200082C
:10010000AB020008AB020008AB020008AB0200081B
:10011000AB020008AB020008AB020008AB0200080B
:10012000AB020008AB020008AB020008AB020008FB
:10013000AB0200080000000000000000AB02000855
:10014000AB020008AB020008AB020008AB020008DB
:10015000AB020008AB020008AB020008AB020008CB
:10016000AB020008AB020008AB020008AB020008BB
:10017000AB020008AB020008AB0200080000000060
:1001800000000000AB0200080000000000000000BA
:10019000AB0200080000000000000000AB020008F5
:1001A000000000000000000000000000AB0200089A
:1001B000AB020008AB020008AB020008AB0200086B
:1001C000AB02000800F002F800F052F814A696E81E
:1001D000000CB244B344DA4501D100F049F8BAE862
:1001E0000F000FA696E83000A5EB040504EB060708
:1001F000AAEB0704A7F101074FEA15154FEA3414DB
:10020000A4F10104AC4201D300F032F813F0010F65
:1002100018BFFB1A43F0010300F001F8DBE71847B1
:10022000240D0000440D0000103A24BF78C878C1A6
:10023000FAD8520724BF30C830C144BF04680C60EC
:1002400070470000704700000023002400250026AE
:10025000103A28BF78C1FBD8520728BF30C148BF29
:100260000B6070471FB500F060FE1FBD10B510BDDC
:1002700000F031F81146FFF7F5FF00F0EDFA00F05D
:100280004FF803B4FFF7F2FF03BC00F057F800008B
:100290000948804709480047FEE7FEE7FEE7FEE71A
:1002A000FEE7FEE7FEE7FEE7FEE7FEE70448054956
:1002B000054A064B7047000041080008C5010008C8
:1002C00070000020700600207002002070020020E4
:1002D000704770477047754600F02CF8AE46050031
:1002E0006946534620F00700854618B020B5FFF751
:1002F000DDFFBDE820404FF000064FF000074FF053
:1003000000084FF0000BAC46ACE8C009ACE8C009EF
:10031000ACE8C009ACE8C00921F007018D46704780
:1003200010B50446AFF300802046BDE81040FFF74B
:10033000A8BF0000004870470800002001491820AD
:10034000ABBEFEE72600020070470000FEE700009B
:100350007047000040F2000040F26801C2F2000065
:10036000C2F2000100780A6810440860704700007B
:10037000FEE7000080B544F6F010C0F2020000BFB6
:1003800000BF00BF00BF00BF00BF00BF00BF00BF75
:1003900000BF00BF00BF00BF00BF00BF00BF00BF65
:1003A00000BF00BF00BF00BF00BF00BF00BF00BF55
:1003B00000BF00BF00BF00BF00BF00BF00BF00BF45
:1003C00000BF00BF00BF00BF00BF00BF00BF00BF35
:1003D00000BF00BF00BF00BF00BF00BF00BF00BF25
:1003E00000BF00BF00BF00BF00BF00BF00BF00BF15
:1003F00000BF00BF00BF3C3800BFC1D1302000F0BB
:1004000021F943F6982000BF00BF00BF00BF00BF26
:1004100000BF00BF00BF00BF00BF00BF00BF00BFE4
:1004200000BF00BF00BF00BF00BF00BF00BF00BFD4
:1004300000BF00BF00BF00BF00BF00BF00BF00BFC4
:1004400000BF00BF00BF00BF00BF00BF00BF00BFB4
:1004500000BF00BF00BF00BF00BF00BF00BF00BFA4
:1004600000BF00BF00BF00BF00BF00BF00BF00BF94
:1004700000BF00BF00BF00BF00BF00BF00BF3C38CF
:1004800000BFC1D1302000F0DDF843F6982000BF56
:1004900000BF00BF00BF00BF00BF00BF00BF00BF64
:1004A00000BF00BF00BF00BF00BF00BF00BF00BF54
:1004B00000BF00BF00BF00BF00BF00BF00BF00BF44
:1004C00000BF00BF00BF00BF00BF00BF00BF00BF34
:1004D00000BF00BF00BF00BF00BF00BF00BF00BF24
:1004E00000BF00BF00BF00BF00BF00BF00BF00BF14
:1004F00000BF00BF00BF00BF00BF00BF00BF00BF04
:1005000000BF00BF00BF3C3800BFC1D1302000F0A9
:1005100099F843F6982000BF00BF00BF00BF00BF9E
:1005200000BF00BF00BF00BF00BF00BF00BF00BFD3
:1005300000BF00BF00BF00BF00BF00BF00BF00BFC3
:1005400000BF00BF00BF00BF00BF00BF00BF00BFB3
:1005500000BF00BF00BF00BF00BF00BF00BF00BFA3
:1005600000BF00BF00BF00BF00BF00BF00BF00BF93
:1005700000BF00BF00BF00BF00BF00BF00BF00BF83
:1005800000BF00BF00BF00BF00BF00BF00BF3C38BE
:1005900000BFC1D1202000F055F8202000F052F813
:1005A000802000F04FF8002000F04CF8C02000F050
:1005B00049F8002000F046F8102000F043F843F618
:1005C000982000BF00BF00BF00BF00BF00BF00BF3A
:1005D00000BF00BF00BF00BF00BF00BF00BF00BF23
:1005E00000BF00BF00BF00BF00BF00BF00BF00BF13
:1005F00000BF00BF00BF00BF00BF00BF00BF00BF03
:1006000000BF00BF00BF00BF00BF00BF00BF00BFF2
:1006100000BF00BF00BF00BF00BF00BF00BF00BFE2
:1006200000BF00BF00BF00BF00BF00BF00BF00BFD2
:1006300000BF00BF00BF00BF00BF3C3800BFC1D13A
:1006400080BD000045F21441C4F2000151F8142CA1
:1006500042F4807241F8142C0A68D20709D10A6862
:10066000D20704BF0A685FEAC27202D10A68D207E1
:10067000F2D04E2241F8042C0A68920709D40A6885
:1006800092075CBF0A685FEA827202D40A68920726
:10069000F2D540F008024B6841F8042C0B681B06A9
:1006A00009D40B681B065CBF0B685FEA036302D4C6
:1006B0000B681B06F2D551F8143C43F4007341F863
:1006C000143C51F8143C43F4807341F8143C0B681B
:1006D000DB0709D10B68DB0704BF0B685FEAC37354
:1006E00002D10B68DB07F2D04E2341F8043C0B68C3
:1006F0009B0709D40B689B075CBF0B685FEA837399
:1007000002D40B689B07F2D540F00C004B6841F80F
:10071000040C0868000609D4086800065CBF086875
:100720005FEA006002D408680006F2D551F8140CA4
:1007300040F4007041F8140C40F6B83000BF00BF20
:1007400000BF00BF00BF00BF00BF00BF00BF00BFB1
:1007500000BF00BF00BF00BF00BF00BF00BF00BFA1
:1007600000BF00BF00BF00BF00BF00BF00BF00BF91
:1007700000BF00BF00BF00BF00BF00BF00BF00BF81
:1007800000BF00BF00BF00BF00BF00BF00BF00BF71
:1007900000BF00BF00BF00BF00BF00BF00BF00BF61
:1007A00000BF00BF00BF00BF00BF00BF00BF00BF51
:1007B00000BF3C3800BFC1D151F8140C40F4807028
:1007C00041F8140C0868C00709D10868C00704BFC5
:1007D00008685FEAC07002D10868C007F2D04E20F6
:1007E00041F8040C0868800709D4086880075CBFDA
:1007F00008685FEA807002D408688007F2D548680C
:1008000041F8042C0868000609D4086800065CBF9B
:1008100008685FEA006002D408680006F2D551F863
:10082000140C40F4007041F8140C7047FEE700000F
:10083000FEE700007047000070470000FFF78ABD28
:100840004EF68850CEF20000016841F4700101605C
:1008500070470000FEE7000043F63000C4F20200DB
:10086000016845F2144441F0030101600169C4F2DA
:10087000000441F0087101610020C4F20200D0F8C8
:10088000001446F2044521F47021C0F80014D0F899
:100890000014C4F2000541F42021C0F8001440F215
:1008A0002441C4F202010A6822F0FF020A600A68C9
:1008B00042F044020A6051F8202C42F4407241F8A0
:1008C000202C51F81C2C42F4702241F81C2C016899
:1008D00021F070710160016841F020710160416A8E
:1008E00021F47F214162416A41F41921416254F8A7
:1008F000140C20F0010044F8140C102044F8100CE3
:100900005020A0601120E06054F8140C40F0010069
:1009100044F8140CFFF72EFD55F8040C40F00100CC
:1009200045F8040C2868C00709D12868C00704BF2F
:1009300028685FEAC07002D12868C007F2D003209F
:10094000C0F21C20A861D5F8FC0140F00100C5F8F8
:10095000FC01D5F8180240F00100C5F81802D5F8DE
:10096000080240F00100C5F808020020C5F83C026A
:10097000C5F84002D5F8FC0120F00100C5F8FC01E3
:1009800055F8040C20F0010045F8040C2868C00755
:1009900009D02868C0071CBF28685FEAC07002D071
:1009A0002868C007F2D18020FFF74CFE0020FFF737
:1009B00049FE5120FFF746FE3120FFF743FE61203C
:1009C000FFF740FE5120FFF73DFE6120FFF73AFEA2
:1009D000E120FFF737FE7120FFF734FE4120FFF7DB
:1009E00031FE3120FFF72EFEA120FFF72BFE412024
:1009F000FFF728FE8120FFF725FE4120FFF722FEAA
:100A00005120FFF71FFE4120FFF71CFEC120FFF71A
:100A100019FE4120FFF716FEC120FFF713FE41200B
:100A2000FFF710FEF120FFF70DFEC020FFF70AFED2
:100A30000020FFF707FE5120FFF704FE2120FFF7FB
:100A400001FE6120FFF7FEFD5120FFF7FBFD612055
:100A5000FFF7F8FD3120FFF7F5FD7120FFF7F2FDFC
:100A60006120FFF7EFFD3120FFF7ECFDA120FFF73C
:100A7000E9FD40F2000C4EF26030C2F2604C4FF0E3
:100A8000010E4FF048084E23C0F216006968490174
:100A9000FCD5C5F87CC1C5F880E1C5F88481D5F8DE
:100AA0007C1141F00101C5F87C11A968890709D1C1
:100AB000A968890704BFA9685FEA817102D1A968A2
:100AC0008907F2D0D5F8B411AE6846F02006AE60C2
:100AD00054F8146C46F4807644F8146C2668F607D3
:100AE0000AD12668F60704BF26685FEAC67603D1F6
:100AF0002668F607F2D000BF44F8043C2668B60723
:100B00000AD42668B6075CBF26685FEA867603D4F7
:100B10002668B607F2D500BF41F0090601F0F007DC
:100B2000626806F0F90644F8046C2268120609D4DB
:100B3000226812065CBF22685FEA026202D4226861
:100B40001206F2D554F8142C42F4007244F8142C16
:100B500054F8142C42F4807244F8142C2268D20702
:100B60000AD12268D20704BF22685FEAC27203D1A9
:100B70002268D207F2D000BF44F8043C22689207F2
:100B80000AD4226892075CBF22685FEA827203D4AB
:100B900022689207F2D500BF47F00D02676844F85B
:100BA000042C2268120609D4226812065CBF22684F
:100BB0005FEA026202D422681206F2D554F8142CBD
:100BC00040F6B83742F4007244F8142C00BF00BF5E
:100BD00000BF00BF00BF00BF00BF00BF00BF00BF1D
:100BE00000BF00BF00BF00BF00BF00BF00BF00BF0D
:100BF00000BF00BF00BF00BF00BF00BF00BF00BFFD
:100C000000BF00BF00BF00BF00BF00BF00BF00BFEC
:100C100000BF00BF00BF00BF00BF00BF00BF00BFDC
:100C200000BF00BF00BF00BF00BF00BF00BF00BFCC
:100C300000BF00BF00BF00BF00BF00BF00BF00BFBC
:100C400000BF3C3F00BFC1D154F8142C42F4807265
:100C500044F8142C2268D2070AD12268D20704BFB4
:100C600022685FEAC27203D12268D207F2D000BFC5
:100C700044F8043C226892070AD4226892075CBFB9
:100C800022685FEA827203D422689207F2D500BF1D
:100C9000626844F8046C2268120609D422681206BD
:100CA0005CBF22685FEA026202D422681206F2D5B3
:100CB00054F8142C42F4007244F8142C54F8142CF8
:100CC00042F4807244F8142C2268D2070AD12268B8
:100CD000D20704BF22685FEAC27203D12268D2073A
:100CE000F2D000BF44F8043C226892070AD422687C
:100CF00092075CBF22685FEA827203D4226892077F
:100D0000F2D500BF0E0106F109016268C9B244F8CC
:100D1000041C2268120609D4226812065CBF2268ED
:100D20005FEA026202D422681206F2D554F8142C4B
:100D300042F4007244F8142C54F8142C42F48072DB
:100D400044F8142C2268D2070AD12268D20704BFC3
:100D500022685FEAC27203D12268D207F2D000BFD4
:100D600044F8043C226892070AD4226892075CBFC8
:100D700022685FEA827203D422689207F2D500BF2C
:100D800046F00D026668D2B244F8042C22681206BE
:100D90000AD4226812065CBF22685FEA026203D4AA
:100DA00022681206F2D500BF54F8142C40F6B8366B
:100DB00042F4007244F8142C00BF00BF00BF00BF13
:100DC00000BF00BF00BF00BF00BF00BF00BF00BF2B
:100DD00000BF00BF00BF00BF00BF00BF00BF00BF1B
:100DE00000BF00BF00BF00BF00BF00BF00BF00BF0B
:100DF00000BF00BF00BF00BF00BF00BF00BF00BFFB
:100E000000BF00BF00BF00BF00BF00BF00BF00BFEA
:100E100000BF00BF00BF00BF00BF00BF00BF00BFDA
:100E200000BF00BF00BF00BF00BF00BF00BF3C3E0F
:100E300000BFC1D154F8142C42F4807244F8142C31
:100E40002268D2070AD12268D20704BF22685FEA6B
:100E5000C27203D12268D207F2D000BF44F8043C2A
:100E6000226892070AD4226892075CBF22685FEA70
:100E7000827203D422689207F2D500BF626844F8F8
:100E8000041C2168090609D4216809065CBF216891
:100E90005FEA016102D421680906F2D554F8141CF6
:100EA00041F4007144F8141C014600BF00BF00BFAC
:100EB00000BF00BF00BF00BF00BF00BF00BF00BF3A
:100EC00000BF00BF00BF00BF00BF00BF00BF00BF2A
:100ED00000BF00BF00BF00BF00BF00BF00BF00BF1A
:100EE00000BF00BF00BF00BF00BF00BF00BF00BF0A
:100EF00000BF00BF00BF00BF00BF00BF00BF00BFFA
:100F000000BF00BF00BF00BF00BF00BF00BF00BFE9
:100F100000BF00BF00BF00BF00BF00BF00BF00BFD9
:100F200000BF3C3900BFC1D1B0E5F1EE100A4FF669
:100F3000FF71C0F2C03120EA010040F04070E1EEE4
:100F4000100A7047680F0008000000200800000029
:100F500028020008700F0008080000206806000042
:100F6000480200080000000001000000100000001E
:04000005080001C529
:00000001FF
