:020000040800F2
:1000000070060020910200087903000871030008BF
:10001000750300084D0300089D0300080000000060
:100020000000000000000000000000008103000844
:1000300051030008000000007D030008850300084C
:10004000AB020008AB020008AB020008AB020008DC
:10005000AB020008AB020008AB020008AB020008CC
:10006000AB020008AB020008AB020008AB020008BC
:10007000AB020008AB020008AB020008AB020008AC
:10008000AB020008AB020008AB020008AB0200089C
:10009000AB020008AB020008AB020008AB0200088C
:1000A000AB020008AB020008AB020008AB0200087C
:1000B000AB020008AB020008AB020008AB0200086C
:1000C000AB020008AB020008AB020008AB0200085C
:1000D000AB020008AB020008AB020008AB0200084C
:1000E000AB020008AB020008AB020008AB0200083C
:1000F000AB020008AB020008AB020008AB0200082C
:10010000AB020008AB020008AB020008AB0200081B
:10011000AB020008AB020008AB020008AB0200080B
:10012000AB020008AB020008AB020008AB020008FB
:10013000AB0200080000000000000000AB02000855
:10014000AB020008AB020008AB020008AB020008DB
:10015000AB020008AB020008AB020008AB020008CB
:10016000AB020008AB020008AB020008AB020008BB
:10017000AB020008AB020008AB0200080000000060
:1001800000000000AB0200080000000000000000BA
:10019000AB0200080000000000000000AB020008F5
:1001A000000000000000000000000000AB0200089A
:1001B000AB020008AB020008AB020008AB0200086B
:1001C000AB02000800F002F800F052F814A696E81E
:1001D000000CB244B344DA4501D100F049F8BAE862
:1001E0000F000FA696E83000A5EB040504EB060708
:1001F000AAEB0704A7F101074FEA15154FEA3414DB
:10020000A4F10104AC4201D300F032F813F0010F65
:1002100018BFFB1A43F0010300F001F8DBE71847B1
:100220003802000058020000103A24BF78C878C194
:10023000FAD8520724BF30C830C144BF04680C60EC
:1002400070470000704700000023002400250026AE
:10025000103A28BF78C1FBD8520728BF30C148BF29
:100260000B6070471FB500F0EAF81FBD10B510BD58
:1002700000F031F81146FFF7F5FF00F091F800F0BB
:100280004FF803B4FFF7F2FF03BC00F057F800008B
:100290000948804709480047FEE7FEE7FEE7FEE71A
:1002A000FEE7FEE7FEE7FEE7FEE7FEE70448054956
:1002B000054A064B7047000089030008C501000885
:1002C00070000020700600207002002070020020E4
:1002D000704770477047754600F02CF8AE46050031
:1002E0006946534620F00700854618B020B5FFF751
:1002F000DDFFBDE820404FF000064FF000074FF053
:1003000000084FF0000BAC46ACE8C009ACE8C009EF
:10031000ACE8C009ACE8C00921F007018D46704780
:1003200010B50446AFF300802046BDE81040FFF74B
:10033000A8BF0000004870470800002001491820AD
:10034000ABBEFEE72600020070470000FEE700009B
:100350007047000040F2000040F26801C2F2000065
:10036000C2F2000100780A6810440860704700007B
:10037000FEE70000FEE70000FEE700007047000017
:1003800070470000FFF7E6BF4EF68850CEF200003F
:10039000016841F47001016070470000FEE7000051
:1003A00043F63001C4F20201086840F00100086021
:1003B0000A68142042F00402C4F202000A6050F8F5
:1003C000141C21F4406140F8141C50F8141C41F432
:1003D000806140F8141CD0F8EC2740F60C0122F0A4
:1003E0004062C4F20201C0F8EC270A6822F04062C1
:1003F0000A600A6842F080620A6000BF4A680368C7
:10040000520B62F3451383F0200202604A680368CE
:10041000520B62F3451383F0200202604A680368BE
:10042000520B62F3451383F0200202604A680368AE
:10043000520B62F3451383F020020260DEE7F1EE17
:10044000100A4FF6FF71C0F2C03120EA010040F0FF
:100450004070E1EE100A70477804000800000020A8
:10046000080000002802000880040008080000209E
:1004700068060000480200080100000010000000AB
:04000005080001C529
:00000001FF
