:020000040800F2
:100000007006002091020008D5070008710300085F
:10001000D10700084D030008F907000800000000A0
:10002000000000000000000000000000DD070008E4
:100030005103000800000000D9070008E10700088C
:10004000AB020008AB020008AB020008AB020008DC
:10005000AB020008AB020008AB020008AB020008CC
:10006000AB020008AB020008AB020008AB020008BC
:10007000AB020008AB020008AB020008AB020008AC
:10008000AB020008AB020008AB020008AB0200089C
:10009000AB020008AB020008AB020008AB0200088C
:1000A000AB020008AB020008AB020008AB0200087C
:1000B000AB020008AB020008AB020008AB0200086C
:1000C000AB020008AB020008AB020008AB0200085C
:1000D000AB020008AB020008AB020008AB0200084C
:1000E000AB020008AB020008AB020008AB0200083C
:1000F000AB020008AB020008AB020008AB0200082C
:10010000AB020008AB020008AB020008AB0200081B
:10011000AB020008AB020008AB020008AB0200080B
:10012000AB020008AB020008AB020008AB020008FB
:10013000AB0200080000000000000000AB02000855
:10014000AB020008AB020008AB020008AB020008DB
:10015000AB020008AB020008AB020008AB020008CB
:10016000AB020008AB020008AB020008AB020008BB
:10017000AB020008AB020008AB0200080000000060
:1001800000000000AB0200080000000000000000BA
:10019000AB0200080000000000000000AB020008F5
:1001A000000000000000000000000000AB0200089A
:1001B000AB020008AB020008AB020008AB0200086B
:1001C000AB02000800F002F800F052F814A696E81E
:1001D000000CB244B344DA4501D100F049F8BAE862
:1001E0000F000FA696E83000A5EB040504EB060708
:1001F000AAEB0704A7F101074FEA15154FEA3414DB
:10020000A4F10104AC4201D300F032F813F0010F65
:1002100018BFFB1A43F0010300F001F8DBE71847B1
:1002200094060000B4060000103A24BF78C878C1D4
:10023000FAD8520724BF30C830C144BF04680C60EC
:1002400070470000704700000023002400250026AE
:10025000103A28BF78C1FBD8520728BF30C148BF29
:100260000B6070471FB500F018FB1FBD10B510BD27
:1002700000F031F81146FFF7F5FF00F0BFFA00F08B
:100280004FF803B4FFF7F2FF03BC00F057F800008B
:100290000948804709480047FEE7FEE7FEE7FEE71A
:1002A000FEE7FEE7FEE7FEE7FEE7FEE70448054956
:1002B000054A064B70470000E5070008C501000825
:1002C00070000020700600207002002070020020E4
:1002D000704770477047754600F02CF8AE46050031
:1002E0006946534620F00700854618B020B5FFF751
:1002F000DDFFBDE820404FF000064FF000074FF053
:1003000000084FF0000BAC46ACE8C009ACE8C009EF
:10031000ACE8C009ACE8C00921F007018D46704780
:1003200010B50446AFF300802046BDE81040FFF74B
:10033000A8BF0000004870470800002001491820AD
:10034000ABBEFEE72600020070470000FEE700009B
:100350007047000040F2000040F26801C2F2000065
:10036000C2F2000100780A6810440860704700007B
:10037000FEE7000080B540F64050C0F2030000BF29
:1003800000BF00BF00BF00BF00BF00BF00BF00BF75
:1003900000BF00BF00BF00BF00BF00BF00BF00BF65
:1003A00000BF00BF00BF00BF00BF00BF00BF00BF55
:1003B00000BF00BF00BF00BF00BF00BF00BF00BF45
:1003C00000BF00BF00BF00BF00BF00BF00BF00BF35
:1003D00000BF00BF00BF00BF00BF00BF00BF00BF25
:1003E00000BF00BF00BF00BF00BF00BF00BF00BF15
:1003F00000BF00BF00BF00BF00BF00BF00BF40384C
:1004000000BFBDD1302000F0F9F844F6206000BFF5
:1004100000BF00BF00BF00BF00BF00BF00BF00BFE4
:1004200000BF00BF00BF00BF00BF00BF00BF00BFD4
:1004300000BF00BF00BF00BF00BF00BF00BF00BFC4
:1004400000BF00BF00BF00BF00BF00BF00BF00BFB4
:1004500000BF00BF00BF00BF00BF00BF00BF00BFA4
:1004600000BF00BF00BF00BF00BF00BF00BF00BF94
:1004700000BF323800BFCBD1302000F0BFF844F6C7
:10048000206000BF00BF00BF00BF00BF00BF00BFB3
:1004900000BF00BF00BF00BF00BF00BF00BF00BF64
:1004A00000BF00BF00BF00BF00BF00BF00BF00BF54
:1004B00000BF00BF00BF00BF00BF00BF00BF00BF44
:1004C00000BF00BF00BF00BF00BF00BF00BF00BF34
:1004D00000BF00BF00BF00BF00BF00BF00BF00BF24
:1004E00000BF00BF00BF323800BFCBD1302000F0CA
:1004F00085F844F6206000BF00BF00BF00BF00BF0A
:1005000000BF00BF00BF00BF00BF00BF00BF00BFF3
:1005100000BF00BF00BF00BF00BF00BF00BF00BFE3
:1005200000BF00BF00BF00BF00BF00BF00BF00BFD3
:1005300000BF00BF00BF00BF00BF00BF00BF00BFC3
:1005400000BF00BF00BF00BF00BF00BF00BF00BFB3
:1005500000BF00BF00BF00BF00BF323800BFCBD11B
:10056000202000F04BF8202000F048F8802000F018
:1005700045F8002000F042F8C02000F03FF80020CD
:1005800000F03CF8102000F039F844F6206000BF7D
:1005900000BF00BF00BF00BF00BF00BF00BF00BF63
:1005A00000BF00BF00BF00BF00BF00BF00BF00BF53
:1005B00000BF00BF00BF00BF00BF00BF00BF00BF43
:1005C00000BF00BF00BF00BF00BF00BF00BF00BF33
:1005D00000BF00BF00BF00BF00BF00BF00BF00BF23
:1005E00000BF00BF00BF00BF00BF00BF00BF00BF13
:1005F00000BF323800BFCBD180BD000045F21441AE
:10060000C4F2000151F8142C42F4807241F8142C09
:100610000A68D20709D10A68D20704BF0A685FEAEC
:10062000C27202D10A68D207F2D04E2241F8042CDD
:100630000A68920709D40A6892075CBF0A685FEAF1
:10064000827202D40A689207F2D540F008024B6821
:1006500041F8042C0B681B0609D40B681B065CBF11
:100660000B685FEA036302D40B681B06F2D551F8EE
:10067000143C43F4007341F8143C51F8143C43F427
:10068000807341F8143C0B68DB0709D10B68DB076A
:1006900004BF0B685FEAC37302D10B68DB07F2D0BB
:1006A0004E2341F8043C0B689B0709D40B689B0759
:1006B0005CBF0B685FEA837302D40B689B07F2D5BB
:1006C00040F00C004B6841F8040C0868000609D49F
:1006D000086800065CBF08685FEA006002D408682A
:1006E0000006F2D551F8140C40F4007041F8140CD7
:1006F0004FF47A6000BF00BF00BF00BF00BF00BF63
:1007000000BF00BF00BF00BF00BF00BF00BF00BFF1
:1007100000BF00BF00BF00BF00BF00BF00BF00BFE1
:1007200000BF00BF00BF00BF00BF00BF00BF00BFD1
:1007300000BF00BF00BF00BF00BF00BF00BF00BFC1
:1007400000BF00BF00BF00BF00BF00BF00BF00BFB1
:1007500000BF00BF00BF323800BFCBD151F8140C2E
:1007600040F4807041F8140C0868C00709D108688B
:10077000C00704BF08685FEAC07002D10868C007FC
:10078000F2D04E2041F8040C0868800709D40868AC
:1007900080075CBF08685FEA807002D40868800741
:1007A000F2D5486841F8042C0868000609D40868A6
:1007B00000065CBF08685FEA006002D408680006B3
:1007C000F2D551F8140C40F4007041F8140C704745
:1007D000FEE70000FEE700007047000070470000E1
:1007E000FFF7B8BD4EF68850CEF20000016841F424
:1007F0007001016070470000FEE7000043F6300022
:10080000C4F20200016841F002010160016941F493
:100810000011016140F20040C4F20200016841F49D
:1008200020210160416A41F044014162416841F484
:1008300040714160816841F47021816045F200405F
:10084000C4F20000102141605021C16111210162F8
:10085000016841F001010160FFF78CFD4120FFF7C5
:10086000CDFE8120FFF7CAFE4120FFF7C7FE5120D1
:10087000FFF7C4FE4120FFF7C1FEC120FFF7BEFE17
:100880004120FFF7BBFEC120FFF7B8FE4120FFF774
:10089000B5FEF120FFF7B2FEFEE7F1EE100A4FF6CB
:1008A000FF71C0F2C03120EA010040F04070E1EE7B
:1008B000100A7047D8080008000000200800000057
:1008C00028020008E0080008080000206806000070
:1008D00048020008000000000100000010000000B5
:04000005080001C529
:00000001FF
