:020000040800F2
:10000000700A002091020008C5030008BD03000823
:10001000C103000899030008A516000800000000AD
:100020000000000000000000000000008916000829
:100030009D03000800000000851600088D160008CA
:10004000AB020008AB020008AB020008AB020008DC
:10005000AB020008AB020008AB020008AB020008CC
:10006000AB020008AB020008AB020008AB020008BC
:10007000AB020008AB020008AB020008AB020008AC
:10008000AB020008AB020008AB020008AB0200089C
:10009000AB020008AB020008AB020008AB0200088C
:1000A000AB020008AB020008AB020008AB0200087C
:1000B000AB020008AB020008AB020008AB0200086C
:1000C000AB020008AB020008AB020008AB0200085C
:1000D000AB020008AB020008AB020008AB0200084C
:1000E000AB020008AB020008AB020008AB0200083C
:1000F000AB020008AB020008AB020008AB0200082C
:10010000AB020008AB020008AB020008AB0200081B
:10011000AB020008AB020008AB020008AB0200080B
:10012000AB020008AB020008AB020008AB020008FB
:10013000AB0200080000000000000000AB02000855
:10014000AB020008AB020008AB020008AB020008DB
:10015000AB020008AB020008AB020008AB020008CB
:10016000AB020008AB020008AB020008AB020008BB
:10017000AB020008AB020008AB0200080000000060
:1001800000000000AB0200080000000000000000BA
:10019000AB0200080000000000000000AB020008F5
:1001A000000000000000000000000000AB0200089A
:1001B000AB020008AB020008AB020008AB0200086B
:1001C000AB02000800F002F800F052F814A696E81E
:1001D000000CB244B344DA4501D100F049F8BAE862
:1001E0000F000FA696E83000A5EB040504EB060708
:1001F000AAEB0704A7F101074FEA15154FEA3414DB
:10020000A4F10104AC4201D300F032F813F0010F65
:1002100018BFFB1A43F0010300F001F8DBE71847B1
:10022000E815000008160000103A24BF78C878C10D
:10023000FAD8520724BF30C830C144BF04680C60EC
:1002400070470000704700000023002400250026AE
:10025000103A28BF78C1FBD8520728BF30C148BF29
:100260000B6070471FB501F0C2FA1FBD10B510BD7D
:1002700000F058F81146FFF7F5FF01F015FA00F00D
:1002800076F803B4FFF7F2FF03BC00F07DF800003E
:100290000948804709480047FEE7FEE7FEE7FEE71A
:1002A000FEE7FEE7FEE7FEE7FEE7FEE70448054956
:1002B000054A064B7047000091160008C50100086A
:1002C00070040020700A00207006002070060020D4
:1002D0004FF0000200B5134694469646203922BFDF
:1002E000A0E80C50A0E80C50B1F12001BFF4F7AF2A
:1002F000090728BFA0E80C5048BF0CC05DF804EB0C
:10030000890028BF40F8042B08BF704748BF20F879
:10031000022B11F0804F18BF00F8012B7047704777
:1003200070477047754600F02BF8AE4605006946E9
:10033000534620F00700854618B020B5FFF7B6FFFA
:10034000BDE820404FF000064FF000074FF00008D6
:100350004FF0000BAC46ACE8C009ACE8C009ACE813
:10036000C009ACE8C00921F007018D46704710B5FF
:100370000446AFF300802046BDE81040FFF781BF80
:10038000004870470800002001491820ABBEFEE776
:100390002600020070470000FEE7000070470000E2
:1003A00040F2000040F26841C2F20000C2F20001D7
:1003B00000780A681044086070470000FEE70000FB
:1003C000FEE70000FEE7000081B045F21440C4F2F1
:1003D000000050F8141C41F4807140F8141C0168AE
:1003E000C90709D10168C90704BF01685FEAC17183
:1003F00002D10168C907F2D0782140F8041C0168D5
:10040000890709D4016889075CBF01685FEA8171C7
:1004100002D401688907F2D5416800910168090694
:1004200009D4016809065CBF01685FEA016102D472
:1004300001680906F2D5002140F8041C016809068C
:1004400009D4016809065CBF01685FEA016102D452
:1004500001680906F2D5AE2140F8041C016849077D
:1004600009D4016849075CBF01685FEA417102D4A1
:1004700001684907F2D550F8141C41F4007140F8A6
:10048000141C50F8141C41F4807140F8141C0168CD
:10049000C90709D10168C90704BF01685FEAC171D2
:1004A00002D10168C907F2D0782140F8041C016824
:1004B000890709D4016889075CBF01685FEA817117
:1004C00002D401688907F2D54168009101680906E4
:1004D00009D4016809065CBF01685FEA016102D4C2
:1004E00001680906F2D5002140F8041C01680906DC
:1004F00009D4016809065CBF01685FEA016102D4A2
:1005000001680906F2D5202140F8041C016849075A
:1005100009D4016849075CBF01685FEA417102D4F0
:1005200001684907F2D550F8141C41F4007140F8F5
:10053000141C50F8141C41F4807140F8141C01681C
:10054000C90709D10168C90704BF01685FEAC17121
:1005500002D10168C907F2D0782140F8041C016873
:10056000890709D4016889075CBF01685FEA817166
:1005700002D401688907F2D5416800910168090633
:1005800009D4016809065CBF01685FEA016102D411
:1005900001680906F2D5002140F8041C016809062B
:1005A00009D4016809065CBF01685FEA016102D4F1
:1005B00001680906F2D5002140F8041C01684907CA
:1005C00009D4016849075CBF01685FEA417102D440
:1005D00001684907F2D550F8141C41F4007140F845
:1005E000141C50F8141C41F4807140F8141C01686C
:1005F000C90709D10168C90704BF01685FEAC17171
:1006000002D10168C907F2D0782140F8041C0168C2
:10061000890709D4016889075CBF01685FEA8171B5
:1006200002D401688907F2D5416800910168090682
:1006300009D4016809065CBF01685FEA016102D460
:1006400001680906F2D5002140F8041C016809067A
:1006500009D4016809065CBF01685FEA016102D440
:1006600001680906F2D5402140F8041C01684907D9
:1006700009D4016849075CBF01685FEA417102D48F
:1006800001684907F2D550F8141C41F4007140F894
:10069000141C50F8141C41F4807140F8141C0168BB
:1006A000C90709D10168C90704BF01685FEAC171C0
:1006B00002D10168C907F2D0782140F8041C016812
:1006C000890709D4016889075CBF01685FEA817105
:1006D00002D401688907F2D54168009101680906D2
:1006E00009D4016809065CBF01685FEA016102D4B0
:1006F00001680906F2D5002140F8041C01680906CA
:1007000009D4016809065CBF01685FEA016102D48F
:1007100001680906F2D5A12140F8041C01684907C7
:1007200009D4016849075CBF01685FEA417102D4DE
:1007300001684907F2D550F8141C41F4007140F8E3
:10074000141C50F8141C41F4807140F8141C01680A
:10075000C90709D10168C90704BF01685FEAC1710F
:1007600002D10168C907F2D0782140F8041C016861
:10077000890709D4016889075CBF01685FEA817154
:1007800002D401688907F2D5416800910168090621
:1007900009D4016809065CBF01685FEA016102D4FF
:1007A00001680906F2D5002140F8041C0168090619
:1007B00009D4016809065CBF01685FEA016102D4DF
:1007C00001680906F2D5C82140F8041C01684907F0
:1007D00009D4016849075CBF01685FEA417102D42E
:1007E00001684907F2D550F8141C41F4007140F833
:1007F000141C50F8141C41F4807140F8141C01685A
:10080000C90709D10168C90704BF01685FEAC1715E
:1008100002D10168C907F2D0782140F8041C0168B0
:10082000890709D4016889075CBF01685FEA8171A3
:1008300002D401688907F2D5416800910168090670
:1008400009D4016809065CBF01685FEA016102D44E
:1008500001680906F2D5002140F8041C0168090668
:1008600009D4016809065CBF01685FEA016102D42E
:1008700001680906F2D5A62140F8041C0168490761
:1008800009D4016849075CBF01685FEA417102D47D
:1008900001684907F2D550F8141C41F4007140F882
:1008A000141C50F8141C41F4807140F8141C0168A9
:1008B000C90709D10168C90704BF01685FEAC171AE
:1008C00002D10168C907F2D0782140F8041C016800
:1008D000890709D4016889075CBF01685FEA8171F3
:1008E00002D401688907F2D54168009101680906C0
:1008F00009D4016809065CBF01685FEA016102D49E
:1009000001680906F2D5002140F8041C01680906B7
:1009100009D4016809065CBF01685FEA016102D47D
:1009200001680906F2D5A82140F8041C01684907AE
:1009300009D4016849075CBF01685FEA417102D4CC
:1009400001684907F2D550F8141C41F4007140F8D1
:10095000141C50F8141C41F4807140F8141C0168F8
:10096000C90709D10168C90704BF01685FEAC171FD
:1009700002D10168C907F2D0782140F8041C01684F
:10098000890709D4016889075CBF01685FEA817142
:1009900002D401688907F2D541680091016809060F
:1009A00009D4016809065CBF01685FEA016102D4ED
:1009B00001680906F2D5002140F8041C0168090607
:1009C00009D4016809065CBF01685FEA016102D4CD
:1009D00001680906F2D53F2140F8041C0168490767
:1009E00009D4016849075CBF01685FEA417102D41C
:1009F00001684907F2D550F8141C41F4007140F821
:100A0000141C50F8141C41F4807140F8141C016847
:100A1000C90709D10168C90704BF01685FEAC1714C
:100A200002D10168C907F2D0782140F8041C01689E
:100A3000890709D4016889075CBF01685FEA817191
:100A400002D401688907F2D541680091016809065E
:100A500009D4016809065CBF01685FEA016102D43C
:100A600001680906F2D5002140F8041C0168090656
:100A700009D4016809065CBF01685FEA016102D41C
:100A800001680906F2D5D32140F8041C0168490722
:100A900009D4016849075CBF01685FEA417102D46B
:100AA00001684907F2D550F8141C41F4007140F870
:100AB000141C50F8141C41F4807140F8141C016897
:100AC000C90709D10168C90704BF01685FEAC1719C
:100AD00002D10168C907F2D0782140F8041C0168EE
:100AE000890709D4016889075CBF01685FEA8171E1
:100AF00002D401688907F2D54168009101680906AE
:100B000009D4016809065CBF01685FEA016102D48B
:100B100001680906F2D5002140F8041C01680906A5
:100B200009D4016809065CBF01685FEA016102D46B
:100B300001680906F2D5002140F8041C0168490744
:100B400009D4016849075CBF01685FEA417102D4BA
:100B500001684907F2D550F8141C41F4007140F8BF
:100B6000141C50F8141C41F4807140F8141C0168E6
:100B7000C90709D10168C90704BF01685FEAC171EB
:100B800002D10168C907F2D0782140F8041C01683D
:100B9000890709D4016889075CBF01685FEA817130
:100BA00002D401688907F2D54168009101680906FD
:100BB00009D4016809065CBF01685FEA016102D4DB
:100BC00001680906F2D5002140F8041C01680906F5
:100BD00009D4016809065CBF01685FEA016102D4BB
:100BE00001680906F2D5D52140F8041C01684907BF
:100BF00009D4016849075CBF01685FEA417102D40A
:100C000001684907F2D550F8141C41F4007140F80E
:100C1000141C50F8141C41F4807140F8141C016835
:100C2000C90709D10168C90704BF01685FEAC1713A
:100C300002D10168C907F2D0782140F8041C01688C
:100C4000890709D4016889075CBF01685FEA81717F
:100C500002D401688907F2D541680091016809064C
:100C600009D4016809065CBF01685FEA016102D42A
:100C700001680906F2D5002140F8041C0168090644
:100C800009D4016809065CBF01685FEA016102D40A
:100C900001680906F2D5802140F8041C0168490763
:100CA00009D4016849075CBF01685FEA417102D459
:100CB00001684907F2D550F8141C41F4007140F85E
:100CC000141C50F8141C41F4807140F8141C016885
:100CD000C90709D10168C90704BF01685FEAC1718A
:100CE00002D10168C907F2D0782140F8041C0168DC
:100CF000890709D4016889075CBF01685FEA8171CF
:100D000002D401688907F2D541680091016809069B
:100D100009D4016809065CBF01685FEA016102D479
:100D200001680906F2D5002140F8041C0168090693
:100D300009D4016809065CBF01685FEA016102D459
:100D400001680906F2D5D92140F8041C0168490759
:100D500009D4016849075CBF01685FEA417102D4A8
:100D600001684907F2D550F8141C41F4007140F8AD
:100D7000141C50F8141C41F4807140F8141C0168D4
:100D8000C90709D10168C90704BF01685FEAC171D9
:100D900002D10168C907F2D0782140F8041C01682B
:100DA000890709D4016889075CBF01685FEA81711E
:100DB00002D401688907F2D54168009101680906EB
:100DC00009D4016809065CBF01685FEA016102D4C9
:100DD00001680906F2D5002140F8041C01680906E3
:100DE00009D4016809065CBF01685FEA016102D4A9
:100DF00001680906F2D5222140F8041C0168490760
:100E000009D4016849075CBF01685FEA417102D4F7
:100E100001684907F2D550F8141C41F4007140F8FC
:100E2000141C50F8141C41F4807140F8141C016823
:100E3000C90709D10168C90704BF01685FEAC17128
:100E400002D10168C907F2D0782140F8041C01687A
:100E5000890709D4016889075CBF01685FEA81716D
:100E600002D401688907F2D541680091016809063A
:100E700009D4016809065CBF01685FEA016102D418
:100E800001680906F2D5002140F8041C0168090632
:100E900009D4016809065CBF01685FEA016102D4F8
:100EA00001680906F2D5DA2140F8041C01684907F7
:100EB00009D4016849075CBF01685FEA417102D447
:100EC00001684907F2D550F8141C41F4007140F84C
:100ED000141C50F8141C41F4807140F8141C016873
:100EE000C90709D10168C90704BF01685FEAC17178
:100EF00002D10168C907F2D0782140F8041C0168CA
:100F0000890709D4016889075CBF01685FEA8171BC
:100F100002D401688907F2D5416800910168090689
:100F200009D4016809065CBF01685FEA016102D467
:100F300001680906F2D5002140F8041C0168090681
:100F400009D4016809065CBF01685FEA016102D447
:100F500001680906F2D5122140F8041C016849070E
:100F600009D4016849075CBF01685FEA417102D496
:100F700001684907F2D550F8141C41F4007140F89B
:100F8000141C50F8141C41F4807140F8141C0168C2
:100F9000C90709D10168C90704BF01685FEAC171C7
:100FA00002D10168C907F2D0782140F8041C016819
:100FB000890709D4016889075CBF01685FEA81710C
:100FC00002D401688907F2D54168009101680906D9
:100FD00009D4016809065CBF01685FEA016102D4B7
:100FE00001680906F2D5002140F8041C01680906D1
:100FF00009D4016809065CBF01685FEA016102D497
:1010000001680906F2D5DB2140F8041C0168490794
:1010100009D4016849075CBF01685FEA417102D4E5
:1010200001684907F2D550F8141C41F4007140F8EA
:10103000141C50F8141C41F4807140F8141C016811
:10104000C90709D10168C90704BF01685FEAC17116
:1010500002D10168C907F2D0782140F8041C016868
:10106000890709D4016889075CBF01685FEA81715B
:1010700002D401688907F2D5416800910168090628
:1010800009D4016809065CBF01685FEA016102D406
:1010900001680906F2D5002140F8041C0168090620
:1010A00009D4016809065CBF01685FEA016102D4E6
:1010B00001680906F2D5202140F8041C016849079F
:1010C00009D4016849075CBF01685FEA417102D435
:1010D00001684907F2D550F8141C41F4007140F83A
:1010E000141C50F8141C41F4807140F8141C016861
:1010F000C90709D10168C90704BF01685FEAC17166
:1011000002D10168C907F2D0782140F8041C0168B7
:10111000890709D4016889075CBF01685FEA8171AA
:1011200002D401688907F2D5416800910168090677
:1011300009D4016809065CBF01685FEA016102D455
:1011400001680906F2D5002140F8041C016809066F
:1011500009D4016809065CBF01685FEA016102D435
:1011600001680906F2D58D2140F8041C0168490781
:1011700009D4016849075CBF01685FEA417102D484
:1011800001684907F2D550F8141C41F4007140F889
:10119000141C50F8141C41F4807140F8141C0168B0
:1011A000C90709D10168C90704BF01685FEAC171B5
:1011B00002D10168C907F2D0782140F8041C016807
:1011C000890709D4016889075CBF01685FEA8171FA
:1011D00002D401688907F2D54168009101680906C7
:1011E00009D4016809065CBF01685FEA016102D4A5
:1011F00001680906F2D5002140F8041C01680906BF
:1012000009D4016809065CBF01685FEA016102D484
:1012100001680906F2D5142140F8041C0168490749
:1012200009D4016849075CBF01685FEA417102D4D3
:1012300001684907F2D550F8141C41F4007140F8D8
:10124000141C50F8141C41F4807140F8141C0168FF
:10125000C90709D10168C90704BF01685FEAC17104
:1012600002D10168C907F2D0782140F8041C016856
:10127000890709D4016889075CBF01685FEA817149
:1012800002D401688907F2D5416800910168090616
:1012900009D4016809065CBF01685FEA016102D4F4
:1012A00001680906F2D5002140F8041C016809060E
:1012B00009D4016809065CBF01685FEA016102D4D4
:1012C00001680906F2D5AF2140F8041C01684907FE
:1012D00009D4016849075CBF01685FEA417102D423
:1012E00001684907F2D550F8141C41F4007140F828
:1012F000141C01B0704700002DE9F04381B045F2A5
:10130000144040F26803C4F200004FF000084FF0B0
:1013100078094FF0100C4FF0400EC2F20003002489
:101320000AE000BF50F8141C013441F40071082C8D
:1013300040F8141C00F0A28150F8141C41F4807194
:1013400040F8141C0168C9070AD10168C90704BF25
:1013500001685FEAC17103D10168C907F2D000BF1B
:1013600040F8049C016889070AD4016889075CBFBA
:1013700001685FEA817103D401688907F2D500BF73
:1013800041680091016809060AD4016809065CBF3A
:1013900001685FEA016103D401680906F2D500BF64
:1013A00040F8048C016809060AD4016809065CBF8C
:1013B00001685FEA016103D401680906F2D500BF44
:1013C00044F0B00140F8041C016849070AD40168E0
:1013D00049075CBF01685FEA417103D401684907AE
:1013E000F2D500BF50F8141C41F4007140F8141CF1
:1013F00050F8141C41F4807140F8141C0168C907AE
:101400000AD10168C90704BF01685FEAC17103D14D
:101410000168C907F2D000BF40F8049C0168890741
:101420000AD4016889075CBF01685FEA817103D44F
:1014300001688907F2D500BF41680091016809067B
:101440000AD4016809065CBF01685FEA016103D440
:1014500001680906F2D500BF40F8048C016809064E
:101460000AD4016809065CBF01685FEA016103D420
:1014700001680906F2D500BF40F8048C01684907ED
:101480000AD4016849075CBF01685FEA417103D46F
:1014900001684907F2D500BF50F8141C41F40071EF
:1014A00040F8141C50F8141C41F4807140F8141CCE
:1014B0000168C9070AD10168C90704BF01685FEA6A
:1014C000C17103D10168C907F2D000BF40F8049C84
:1014D000016889070AD4016889075CBF01685FEA6F
:1014E000817103D401688907F2D500BF416800917A
:1014F000016809060AD4016809065CBF01685FEA51
:10150000016103D401680906F2D500BF40F8048CDC
:10151000016809060AD4016809065CBF01685FEA30
:10152000016103D401680906F2D500BF40F804CC7C
:10153000016849070AD4016849075CBF01685FEA8E
:10154000417103D401684907F2D500BF50F8141C5B
:1015500041F4007140F8141C50F8141C41F48071DF
:1015600040F8141C0168C9070AD10168C90704BF03
:1015700001685FEAC17103D10168C907F2D000BFF9
:1015800040F8049C016889070AD4016889075CBF98
:1015900001685FEA817103D401688907F2D500BF51
:1015A00041680091016809060AD4016809065CBF18
:1015B00001685FEA016103D401680906F2D500BF42
:1015C000E501002640F804EC05E000BF0436802E5B
:1015D00040F8047C42D07719D95D0268120609D41C
:1015E000026812065CBF02685FEA026202D4026807
:1015F0001206F2D540F8041C1F44797802681206DE
:101600000AD4026812065CBF02685FEA026203D471
:1016100002681206F2D500BF40F8041CB9780268CF
:10162000120609D4026812065CBF02685FEA026211
:1016300002D402681206F2D540F8041CFF78016853
:101640000906C3D4016809065CBF01685FEA01614D
:10165000BCD401680906F2D5B8E700BF01684907A4
:101660003FF560AE016849075CBF01685FEA417100
:101670003FF558AE01684907F0D553E601B0BDE823
:10168000F08300007047000070470000FEF788BE3E
:101690004EF68850CEF20000016841F470010160FE
:1016A00070470000FEE7000043F63000C4F202007D
:1016B000016841F002010160016941F4001101611A
:1016C00040F20040C4F20200016821F47041016060
:1016D000016841F420410160416841F0C00141606E
:1016E000C16821F47041C160C16841F4A041C1608A
:1016F000816841F470418160016A21F07F4101629B
:10170000016A41F08841016245F20040C4F20000E4
:10171000016841F400410160016821F40041016069
:10172000016821F0010101602A214160D221C161DB
:101730002B210162016841F001010160FEF744FEC6
:1017400040F26804C2F2000404F144004FF46F71E7
:10175000FEF7BEFD40F6FF00C0F60800FF2140F690
:10176000FF0340F2000C48F68F15F926CFF6007102
:101770000022CFF21473C8F6FF1C48F6891EC8F683
:101780008915CFF6000684E80F5040F60C20C4E916
:101790000656C0F6092040F60925CFF60C0540F2A2
:1017A000000C40F2024E206204F1340041F20F02BC
:1017B00041F220034FF60006C0F2FF1CC1F2080EF2
:1017C00080E8205044F220004FF60C01C4F22002C1
:1017D000C0F20F03C0F60C26CFF680706162A262E1
:1017E000E36226632064FFF787FD00BFFEE7F1EEAA
:1017F000100A4FF6FF71C0F2C03120EA010040F03C
:101800004070E1EE100A7047281800080000002020
:101810000800000028020008301800080800002016
:10182000680A0000480200080100000010000000E3
:04000005080001C529
:00000001FF
