:020000040800F2
:100000007006002091020008A10A00087103000890
:100010009D0A00084D030008C50A00080000000002
:10002000000000000000000000000000A90A000815
:100030005103000800000000A50A0008AD0A0008EE
:10004000AB020008AB020008AB020008AB020008DC
:10005000AB020008AB020008AB020008AB020008CC
:10006000AB020008AB020008AB020008AB020008BC
:10007000AB020008AB020008AB020008AB020008AC
:10008000AB020008AB020008AB020008AB0200089C
:10009000AB020008AB020008AB020008AB0200088C
:1000A000AB020008AB020008AB020008AB0200087C
:1000B000AB020008AB020008AB020008AB0200086C
:1000C000AB020008AB020008AB020008AB0200085C
:1000D000AB020008AB020008AB020008AB0200084C
:1000E000AB020008AB020008AB020008AB0200083C
:1000F000AB020008AB020008AB020008AB0200082C
:10010000AB020008AB020008AB020008AB0200081B
:10011000AB020008AB020008AB020008AB0200080B
:10012000AB020008AB020008AB020008AB020008FB
:10013000AB0200080000000000000000AB02000855
:10014000AB020008AB020008AB020008AB020008DB
:10015000AB020008AB020008AB020008AB020008CB
:10016000AB020008AB020008AB020008AB020008BB
:10017000AB020008AB020008AB0200080000000060
:1001800000000000AB0200080000000000000000BA
:10019000AB0200080000000000000000AB020008F5
:1001A000000000000000000000000000AB0200089A
:1001B000AB020008AB020008AB020008AB0200086B
:1001C000AB02000800F002F800F052F814A696E81E
:1001D000000CB244B344DA4501D100F049F8BAE862
:1001E0000F000FA696E83000A5EB040504EB060708
:1001F000AAEB0704A7F101074FEA15154FEA3414DB
:10020000A4F10104AC4201D300F032F813F0010F65
:1002100018BFFB1A43F0010300F001F8DBE71847B1
:10022000841E0000A41E0000103A24BF78C878C1C4
:10023000FAD8520724BF30C830C144BF04680C60EC
:1002400070470000704700000023002400250026AE
:10025000103A28BF78C1FBD8520728BF30C148BF29
:100260000B6070471FB501F00FFF1FBD10B510BD2B
:1002700000F031F81146FFF7F5FF00F025FC00F023
:100280004FF803B4FFF7F2FF03BC00F057F800008B
:100290000948804709480047FEE7FEE7FEE7FEE71A
:1002A000FEE7FEE7FEE7FEE7FEE7FEE70448054956
:1002B000054A064B70470000B10A0008C501000856
:1002C00070000020700600207002002070020020E4
:1002D000704770477047754600F02CF8AE46050031
:1002E0006946534620F00700854618B020B5FFF751
:1002F000DDFFBDE820404FF000064FF000074FF053
:1003000000084FF0000BAC46ACE8C009ACE8C009EF
:10031000ACE8C009ACE8C00921F007018D46704780
:1003200010B50446AFF300802046BDE81040FFF74B
:10033000A8BF0000004870470800002001491820AD
:10034000ABBEFEE72600020070470000FEE700009B
:100350007047000040F2000040F26801C2F2000065
:10036000C2F2000100780A6810440860704700007B
:10037000FEE7000043F63001C4F202010A6840F2D1
:10038000144042F00202C4F202000A6050F8141C49
:1003900045F255526FF3130140F8141C50F8141C29
:1003A000C0F20502114340F8141C016801F47F41BA
:1003B00038310160016821F480710160016841F405
:1003C000007101604FF47A5100BF00BF00BF00BF51
:1003D00000BF00BF00BF00BF00BF00BF00BF00BF25
:1003E00000BF00BF00BF00BF00BF00BF00BF00BF15
:1003F00000BF00BF00BF00BF00BF00BF00BF00BF05
:1004000000BF00BF00BF00BF00BF00BF00BF00BFF4
:1004100000BF00BF00BF00BF00BF00BF00BF00BFE4
:1004200000BF00BF00BF00BF00BF00BF00BF00BFD4
:1004300000BF00BF00BF00BF00BF00BF00BF00BFC4
:1004400000BF00BF00BF403900BFBDD1016821F42B
:10045000007101604FF4FA4100BF00BF00BF00BF50
:1004600000BF00BF00BF00BF00BF00BF00BF00BF94
:1004700000BF00BF00BF00BF00BF00BF00BF00BF84
:1004800000BF00BF00BF00BF00BF00BF00BF00BF74
:1004900000BF00BF00BF00BF00BF00BF00BF00BF64
:1004A00000BF00BF00BF00BF00BF00BF00BF00BF54
:1004B00000BF00BF00BF00BF00BF00BF00BF00BF44
:1004C00000BF00BF00BF00BF00BF00BF00BF00BF34
:1004D00000BF00BF00BF403900BFBDD14FF4FA518B
:1004E00000BF00BF00BF00BF00BF00BF00BF00BF14
:1004F00000BF00BF00BF00BF00BF00BF00BF00BF04
:1005000000BF00BF00BF00BF00BF00BF00BF00BFF3
:1005100000BF00BF00BF00BF00BF00BF00BF00BFE3
:1005200000BF00BF00BF00BF00BF00BF00BF00BFD3
:1005300000BF00BF00BF00BF00BF00BF00BF00BFC3
:1005400000BF00BF00BF00BF00BF00BF00BF00BFB3
:1005500000BF00BF00BF00BF00BF00BF00BF4039E9
:1005600000BFBDD1016801F47F410C310160016819
:1005700021F480710160016841F4007101604FF461
:100580007A5100BF00BF00BF00BF00BF00BF00BF67
:1005900000BF00BF00BF00BF00BF00BF00BF00BF63
:1005A00000BF00BF00BF00BF00BF00BF00BF00BF53
:1005B00000BF00BF00BF00BF00BF00BF00BF00BF43
:1005C00000BF00BF00BF00BF00BF00BF00BF00BF33
:1005D00000BF00BF00BF00BF00BF00BF00BF00BF23
:1005E00000BF00BF00BF00BF00BF00BF00BF00BF13
:1005F00000BF00BF00BF00BF00BF00BF00BF00BF03
:1006000000BF403900BFBDD1016821F40071016015
:100610004FF4FA4100BF00BF00BF00BF00BF00BFE2
:1006200000BF00BF00BF00BF00BF00BF00BF00BFD2
:1006300000BF00BF00BF00BF00BF00BF00BF00BFC2
:1006400000BF00BF00BF00BF00BF00BF00BF00BFB2
:1006500000BF00BF00BF00BF00BF00BF00BF00BFA2
:1006600000BF00BF00BF00BF00BF00BF00BF00BF92
:1006700000BF00BF00BF00BF00BF00BF00BF00BF82
:1006800000BF00BF00BF00BF00BF00BF00BF00BF72
:1006900000BF403900BFBDD14FF4FA5100BF00BFC9
:1006A00000BF00BF00BF00BF00BF00BF00BF00BF52
:1006B00000BF00BF00BF00BF00BF00BF00BF00BF42
:1006C00000BF00BF00BF00BF00BF00BF00BF00BF32
:1006D00000BF00BF00BF00BF00BF00BF00BF00BF22
:1006E00000BF00BF00BF00BF00BF00BF00BF00BF12
:1006F00000BF00BF00BF00BF00BF00BF00BF00BF02
:1007000000BF00BF00BF00BF00BF00BF00BF00BFF1
:1007100000BF00BF00BF00BF00BF403900BFBDD158
:10072000016801F47F4106310160016821F48071A4
:100730000160016841F4007101604FF47A5100BF1B
:1007400000BF00BF00BF00BF00BF00BF00BF00BFB1
:1007500000BF00BF00BF00BF00BF00BF00BF00BFA1
:1007600000BF00BF00BF00BF00BF00BF00BF00BF91
:1007700000BF00BF00BF00BF00BF00BF00BF00BF81
:1007800000BF00BF00BF00BF00BF00BF00BF00BF71
:1007900000BF00BF00BF00BF00BF00BF00BF00BF61
:1007A00000BF00BF00BF00BF00BF00BF00BF00BF51
:1007B00000BF00BF00BF00BF00BF00BF00BF403987
:1007C00000BFBDD1016821F4007101604FF4FA410E
:1007D00000BF00BF00BF00BF00BF00BF00BF00BF21
:1007E00000BF00BF00BF00BF00BF00BF00BF00BF11
:1007F00000BF00BF00BF00BF00BF00BF00BF00BF01
:1008000000BF00BF00BF00BF00BF00BF00BF00BFF0
:1008100000BF00BF00BF00BF00BF00BF00BF00BFE0
:1008200000BF00BF00BF00BF00BF00BF00BF00BFD0
:1008300000BF00BF00BF00BF00BF00BF00BF00BFC0
:1008400000BF00BF00BF00BF00BF00BF00BF4039F6
:1008500000BFBDD14FF4FA5100BF00BF00BF00BFC1
:1008600000BF00BF00BF00BF00BF00BF00BF00BF90
:1008700000BF00BF00BF00BF00BF00BF00BF00BF80
:1008800000BF00BF00BF00BF00BF00BF00BF00BF70
:1008900000BF00BF00BF00BF00BF00BF00BF00BF60
:1008A00000BF00BF00BF00BF00BF00BF00BF00BF50
:1008B00000BF00BF00BF00BF00BF00BF00BF00BF40
:1008C00000BF00BF00BF00BF00BF00BF00BF00BF30
:1008D00000BF00BF00BF403900BFBDD1016801F4B7
:1008E0007F4101310160016821F48071016001687C
:1008F00041F4007101604FF47A5100BF00BF00BFA6
:1009000000BF00BF00BF00BF00BF00BF00BF00BFEF
:1009100000BF00BF00BF00BF00BF00BF00BF00BFDF
:1009200000BF00BF00BF00BF00BF00BF00BF00BFCF
:1009300000BF00BF00BF00BF00BF00BF00BF00BFBF
:1009400000BF00BF00BF00BF00BF00BF00BF00BFAF
:1009500000BF00BF00BF00BF00BF00BF00BF00BF9F
:1009600000BF00BF00BF00BF00BF00BF00BF00BF8F
:1009700000BF00BF00BF00BF00BF403900BFBDD1F6
:10098000016821F4007101604FF4FA4000BF00BF1C
:1009900000BF00BF00BF00BF00BF00BF00BF00BF5F
:1009A00000BF00BF00BF00BF00BF00BF00BF00BF4F
:1009B00000BF00BF00BF00BF00BF00BF00BF00BF3F
:1009C00000BF00BF00BF00BF00BF00BF00BF00BF2F
:1009D00000BF00BF00BF00BF00BF00BF00BF00BF1F
:1009E00000BF00BF00BF00BF00BF00BF00BF00BF0F
:1009F00000BF00BF00BF00BF00BF00BF00BF00BFFF
:100A000000BF00BF00BF00BF00BF403800BFBDD166
:100A10004FF4FA5000BF00BF00BF00BF00BF00BFCF
:100A200000BF00BF00BF00BF00BF00BF00BF00BFCE
:100A300000BF00BF00BF00BF00BF00BF00BF00BFBE
:100A400000BF00BF00BF00BF00BF00BF00BF00BFAE
:100A500000BF00BF00BF00BF00BF00BF00BF00BF9E
:100A600000BF00BF00BF00BF00BF00BF00BF00BF8E
:100A700000BF00BF00BF00BF00BF00BF00BF00BF7E
:100A800000BF00BF00BF00BF00BF00BF00BF00BF6E
:100A900000BF403800BFBDD170470000FEE7000036
:100AA000FEE700007047000070470000FFF752BCEF
:100AB0004EF68850CEF20000016841F470010160EA
:100AC00070470000FEE70000B0B58AB043F6300082
:100AD000C4F20200016841F2000541F00101016029
:100AE0004169C4F2010541F0100141610020C4F2E6
:100AF0000200016840F2144421F4701101600168A1
:100B0000C4F2020441F420110160416A21F47F61C2
:100B10004162416A41F4EE61416240F28360A86043
:100B2000E86840F00800E860E86840F00400E86029
:100B3000E86840F40050E860FFF71CFC206800F40F
:100B40007F4080302060206820F480702060206822
:100B500040F4007020604FF47A5000BF00BF00BF27
:100B600000BF00BF00BF00BF00BF00BF00BF00BF8D
:100B700000BF00BF00BF00BF00BF00BF00BF00BF7D
:100B800000BF00BF00BF00BF00BF00BF00BF00BF6D
:100B900000BF00BF00BF00BF00BF00BF00BF00BF5D
:100BA00000BF00BF00BF00BF00BF00BF00BF00BF4D
:100BB00000BF00BF00BF00BF00BF00BF00BF00BF3D
:100BC00000BF00BF00BF00BF00BF00BF00BF00BF2D
:100BD00000BF00BF00BF00BF00BF403800BFBDD195
:100BE000206820F4007020604FF4FA4000BF00BF7E
:100BF00000BF00BF00BF00BF00BF00BF00BF00BFFD
:100C000000BF00BF00BF00BF00BF00BF00BF00BFEC
:100C100000BF00BF00BF00BF00BF00BF00BF00BFDC
:100C200000BF00BF00BF00BF00BF00BF00BF00BFCC
:100C300000BF00BF00BF00BF00BF00BF00BF00BFBC
:100C400000BF00BF00BF00BF00BF00BF00BF00BFAC
:100C500000BF00BF00BF00BF00BF00BF00BF00BF9C
:100C600000BF00BF00BF00BF00BF403800BFBDD104
:100C7000002077220FF6AC41236803F47F431A4328
:100C80002260226842F480722260226842F400727C
:100C900022604FF47A5200BF00BF00BF00BF00BF08
:100CA00000BF00BF00BF00BF00BF00BF00BF00BF4C
:100CB00000BF00BF00BF00BF00BF00BF00BF00BF3C
:100CC00000BF00BF00BF00BF00BF00BF00BF00BF2C
:100CD00000BF00BF00BF00BF00BF00BF00BF00BF1C
:100CE00000BF00BF00BF00BF00BF00BF00BF00BF0C
:100CF00000BF00BF00BF00BF00BF00BF00BF00BFFC
:100D000000BF00BF00BF00BF00BF00BF00BF00BFEB
:100D100000BF00BF00BF403A00BFBDD1226822F42F
:100D2000007222604FF4FA4200BF00BF00BF00BF54
:100D300000BF00BF00BF00BF00BF00BF00BF00BFBB
:100D400000BF00BF00BF00BF00BF00BF00BF00BFAB
:100D500000BF00BF00BF00BF00BF00BF00BF00BF9B
:100D600000BF00BF00BF00BF00BF00BF00BF00BF8B
:100D700000BF00BF00BF00BF00BF00BF00BF00BF7B
:100D800000BF00BF00BF00BF00BF00BF00BF00BF6B
:100D900000BF00BF00BF00BF00BF00BF00BF00BF5B
:100DA00000BF00BF00BF403A00BFBDD101300A5CA8
:100DB0000E287FF461AF00BF2868800603D56868FD
:100DC000C0B2472814D02868800603D56868C0B22E
:100DD00047280DD02868800603D56868C0B2472828
:100DE00006D028688006E7D56868C0B24728E3D1F6
:100DF0002868800603D56868C0B2502814D02868D7
:100E0000800603D56868C0B250280DD028688006D7
:100E100003D56868C0B2502806D028688006E7D598
:100E20006868C0B25028E3D12868800603D5686896
:100E3000C0B2522814D02868800603D56868C0B2B2
:100E400052280DD02868800603D56868C0B25228A1
:100E500006D028688006E7D56868C0B25228E3D17A
:100E60002868800603D56868C0B24D2814D0286869
:100E7000800603D56868C0B24D280DD0286880066A
:100E800003D56868C0B24D2806D028688006E7D52B
:100E90006868C0B24D28E3D12868800603D5686829
:100EA000C0B2432814D02868800603D56868C0B251
:100EB00043280DD02868800603D56868C0B243284F
:100EC00006D028688006E7D56868C0B24328E3D119
:100ED0002868800603D56868C0B22C2814D028681A
:100EE000800603D56868C0B22C280DD0286880061B
:100EF00003D56868C0B22C2806D028688006E7D5DC
:100F00006868C0B22C28E3D12868800603D56868D9
:100F1000C0B22C2814D02868800603D56868C0B2F7
:100F20002C280DD02868800603D56868C0B22C280C
:100F300006D028688006E7D56868C0B22C28E3D1BF
:100F40002868800603D56868C0B241282BD028687D
:100F5000800603D56868C0B2412824D0286880067E
:100F600003D56868C0B241281DD028688006E7D53F
:100F70006868C0B24128E3D115E000BF2868800648
:100F800003D56868C0B22C2814D02868800603D521
:100F90006868C0B22C280DD02868800603D5686820
:100FA000C0B22C2806D028688006E7D56868C0B291
:100FB0002C28E3D1002005A92A68920606D50CE06A
:100FC0002A68920609D42A68920606D42A689206EC
:100FD0005CBF2A685FEA8262F2D56A68D3B22C2BC2
:100FE00006D00A5401302A689206EFD5F5E700BF13
:100FF000206800F47F4001302060206820F4807079
:101000002060206840F4007020604FF47A5000BFE8
:1010100000BF00BF00BF00BF00BF00BF00BF00BFD8
:1010200000BF00BF00BF00BF00BF00BF00BF00BFC8
:1010300000BF00BF00BF00BF00BF00BF00BF00BFB8
:1010400000BF00BF00BF00BF00BF00BF00BF00BFA8
:1010500000BF00BF00BF00BF00BF00BF00BF00BF98
:1010600000BF00BF00BF00BF00BF00BF00BF00BF88
:1010700000BF00BF00BF00BF00BF00BF00BF00BF78
:1010800000BF00BF00BF00BF00BF00BF00BF4038AF
:1010900000BFBDD1206820F4007020604FF4FA40FA
:1010A00000BF00BF00BF00BF00BF00BF00BF00BF48
:1010B00000BF00BF00BF00BF00BF00BF00BF00BF38
:1010C00000BF00BF00BF00BF00BF00BF00BF00BF28
:1010D00000BF00BF00BF00BF00BF00BF00BF00BF18
:1010E00000BF00BF00BF00BF00BF00BF00BF00BF08
:1010F00000BF00BF00BF00BF00BF00BF00BF00BFF8
:1011000000BF00BF00BF00BF00BF00BF00BF00BFE7
:1011100000BF00BF00BF00BF00BF00BF00BF40381E
:1011200000BFBDD1206800F47F408030206020687F
:1011300020F480702060206840F4007020604FF43C
:101140007A5000BF00BF00BF00BF00BF00BF00BF9C
:1011500000BF00BF00BF00BF00BF00BF00BF00BF97
:1011600000BF00BF00BF00BF00BF00BF00BF00BF87
:1011700000BF00BF00BF00BF00BF00BF00BF00BF77
:1011800000BF00BF00BF00BF00BF00BF00BF00BF67
:1011900000BF00BF00BF00BF00BF00BF00BF00BF57
:1011A00000BF00BF00BF00BF00BF00BF00BF00BF47
:1011B00000BF00BF00BF00BF00BF00BF00BF00BF37
:1011C00000BF403800BFBDD1206820F4007020600F
:1011D0004FF4FA4000BF00BF00BF00BF00BF00BF18
:1011E00000BF00BF00BF00BF00BF00BF00BF00BF07
:1011F00000BF00BF00BF00BF00BF00BF00BF00BFF7
:1012000000BF00BF00BF00BF00BF00BF00BF00BFE6
:1012100000BF00BF00BF00BF00BF00BF00BF00BFD6
:1012200000BF00BF00BF00BF00BF00BF00BF00BFC6
:1012300000BF00BF00BF00BF00BF00BF00BF00BFB6
:1012400000BF00BF00BF00BF00BF00BF00BF00BFA6
:1012500000BF403800BFBDD1206800F47F406C3033
:101260002060206840F480702060206840F40070A6
:1012700020604FF47A5000BF00BF00BF00BF00BF26
:1012800000BF00BF00BF00BF00BF00BF00BF00BF66
:1012900000BF00BF00BF00BF00BF00BF00BF00BF56
:1012A00000BF00BF00BF00BF00BF00BF00BF00BF46
:1012B00000BF00BF00BF00BF00BF00BF00BF00BF36
:1012C00000BF00BF00BF00BF00BF00BF00BF00BF26
:1012D00000BF00BF00BF00BF00BF00BF00BF00BF16
:1012E00000BF00BF00BF00BF00BF00BF00BF00BF06
:1012F00000BF00BF00BF403800BFBDD1206820F450
:10130000007020604FF4FA4000BF00BF00BF00BF74
:1013100000BF00BF00BF00BF00BF00BF00BF00BFD5
:1013200000BF00BF00BF00BF00BF00BF00BF00BFC5
:1013300000BF00BF00BF00BF00BF00BF00BF00BFB5
:1013400000BF00BF00BF00BF00BF00BF00BF00BFA5
:1013500000BF00BF00BF00BF00BF00BF00BF00BF95
:1013600000BF00BF00BF00BF00BF00BF00BF00BF85
:1013700000BF00BF00BF00BF00BF00BF00BF00BF75
:1013800000BF00BF00BF403800BFBDD1206800F4DF
:101390007F4061302060206840F4807020602068C9
:1013A00040F4007020604FF47A5000BF00BF00BFCF
:1013B00000BF00BF00BF00BF00BF00BF00BF00BF35
:1013C00000BF00BF00BF00BF00BF00BF00BF00BF25
:1013D00000BF00BF00BF00BF00BF00BF00BF00BF15
:1013E00000BF00BF00BF00BF00BF00BF00BF00BF05
:1013F00000BF00BF00BF00BF00BF00BF00BF00BFF5
:1014000000BF00BF00BF00BF00BF00BF00BF00BFE4
:1014100000BF00BF00BF00BF00BF00BF00BF00BFD4
:1014200000BF00BF00BF00BF00BF403800BFBDD13C
:10143000206820F4007020604FF4FA4000BF00BF25
:1014400000BF00BF00BF00BF00BF00BF00BF00BFA4
:1014500000BF00BF00BF00BF00BF00BF00BF00BF94
:1014600000BF00BF00BF00BF00BF00BF00BF00BF84
:1014700000BF00BF00BF00BF00BF00BF00BF00BF74
:1014800000BF00BF00BF00BF00BF00BF00BF00BF64
:1014900000BF00BF00BF00BF00BF00BF00BF00BF54
:1014A00000BF00BF00BF00BF00BF00BF00BF00BF44
:1014B00000BF00BF00BF00BF00BF403800BFBDD1AC
:1014C000206800F47F4074302060206840F4807011
:1014D0002060206840F4007020604FF47A5000BF14
:1014E00000BF00BF00BF00BF00BF00BF00BF00BF04
:1014F00000BF00BF00BF00BF00BF00BF00BF00BFF4
:1015000000BF00BF00BF00BF00BF00BF00BF00BFE3
:1015100000BF00BF00BF00BF00BF00BF00BF00BFD3
:1015200000BF00BF00BF00BF00BF00BF00BF00BFC3
:1015300000BF00BF00BF00BF00BF00BF00BF00BFB3
:1015400000BF00BF00BF00BF00BF00BF00BF00BFA3
:1015500000BF00BF00BF00BF00BF00BF00BF4038DA
:1015600000BFBDD1206820F4007020604FF4FA4025
:1015700000BF00BF00BF00BF00BF00BF00BF00BF73
:1015800000BF00BF00BF00BF00BF00BF00BF00BF63
:1015900000BF00BF00BF00BF00BF00BF00BF00BF53
:1015A00000BF00BF00BF00BF00BF00BF00BF00BF43
:1015B00000BF00BF00BF00BF00BF00BF00BF00BF33
:1015C00000BF00BF00BF00BF00BF00BF00BF00BF23
:1015D00000BF00BF00BF00BF00BF00BF00BF00BF13
:1015E00000BF00BF00BF00BF00BF00BF00BF40384A
:1015F00000BFBDD1206800F47F403A3020602068F1
:1016000040F480702060206840F4007020604FF447
:101610007A5000BF00BF00BF00BF00BF00BF00BFC7
:1016200000BF00BF00BF00BF00BF00BF00BF00BFC2
:1016300000BF00BF00BF00BF00BF00BF00BF00BFB2
:1016400000BF00BF00BF00BF00BF00BF00BF00BFA2
:1016500000BF00BF00BF00BF00BF00BF00BF00BF92
:1016600000BF00BF00BF00BF00BF00BF00BF00BF82
:1016700000BF00BF00BF00BF00BF00BF00BF00BF72
:1016800000BF00BF00BF00BF00BF00BF00BF00BF62
:1016900000BF403800BFBDD1206820F4007020603A
:1016A0004FF4FA4000BF00BF00BF00BF00BF00BF43
:1016B00000BF00BF00BF00BF00BF00BF00BF00BF32
:1016C00000BF00BF00BF00BF00BF00BF00BF00BF22
:1016D00000BF00BF00BF00BF00BF00BF00BF00BF12
:1016E00000BF00BF00BF00BF00BF00BF00BF00BF02
:1016F00000BF00BF00BF00BF00BF00BF00BF00BFF2
:1017000000BF00BF00BF00BF00BF00BF00BF00BFE1
:1017100000BF00BF00BF00BF00BF00BF00BF00BFD1
:1017200000BF403800BFBDD19DF81410002900F063
:10173000A18005A8226802F47F421143216021683C
:1017400041F480712160216841F4007121604FF4FF
:101750007A5100BF00BF00BF00BF00BF00BF00BF85
:1017600000BF00BF00BF00BF00BF00BF00BF00BF81
:1017700000BF00BF00BF00BF00BF00BF00BF00BF71
:1017800000BF00BF00BF00BF00BF00BF00BF00BF61
:1017900000BF00BF00BF00BF00BF00BF00BF00BF51
:1017A00000BF00BF00BF00BF00BF00BF00BF00BF41
:1017B00000BF00BF00BF00BF00BF00BF00BF00BF31
:1017C00000BF00BF00BF00BF00BF00BF00BF00BF21
:1017D00000BF403900BFBDD1216821F400712160F4
:1017E0004FF4FA4100BF00BF00BF00BF00BF00BF01
:1017F00000BF00BF00BF00BF00BF00BF00BF00BFF1
:1018000000BF00BF00BF00BF00BF00BF00BF00BFE0
:1018100000BF00BF00BF00BF00BF00BF00BF00BFD0
:1018200000BF00BF00BF00BF00BF00BF00BF00BFC0
:1018300000BF00BF00BF00BF00BF00BF00BF00BFB0
:1018400000BF00BF00BF00BF00BF00BF00BF00BFA0
:1018500000BF00BF00BF00BF00BF00BF00BF00BF90
:1018600000BF403900BFBDD110F8011F00297FF42F
:1018700061AF00BF2868800603D56868C0B24E28F3
:101880002BD02868800603D56868C0B24E2824D0C3
:101890002868800603D56868C0B24E281DD0286825
:1018A0008006E7D56868C0B24E28E3D115E000BFD6
:1018B0002868800603D56868C0B22C2814D0286830
:1018C000800603D56868C0B22C280DD02868800631
:1018D00003D56868C0B22C2806D028688006E7D5F2
:1018E0006868C0B22C28E3D1002069462A689206B5
:1018F00006D50CE02A68920609D42A68920606D416
:101900002A6892065CBF2A685FEA8262F2D56A683A
:10191000D3B22C2B0ED00A5401302A689206EFD590
:10192000F5E700BF77616974696E67204750532EF1
:101930002E2E0000206800F47F40C0302060206818
:1019400020F480702060206840F4007020604FF424
:101950007A5000BF00BF00BF00BF00BF00BF00BF84
:1019600000BF00BF00BF00BF00BF00BF00BF00BF7F
:1019700000BF00BF00BF00BF00BF00BF00BF00BF6F
:1019800000BF00BF00BF00BF00BF00BF00BF00BF5F
:1019900000BF00BF00BF00BF00BF00BF00BF00BF4F
:1019A00000BF00BF00BF00BF00BF00BF00BF00BF3F
:1019B00000BF00BF00BF00BF00BF00BF00BF00BF2F
:1019C00000BF00BF00BF00BF00BF00BF00BF00BF1F
:1019D00000BF403800BFBDD1206820F400702060F7
:1019E0004FF4FA4000BF00BF00BF00BF00BF00BF00
:1019F00000BF00BF00BF00BF00BF00BF00BF00BFEF
:101A000000BF00BF00BF00BF00BF00BF00BF00BFDE
:101A100000BF00BF00BF00BF00BF00BF00BF00BFCE
:101A200000BF00BF00BF00BF00BF00BF00BF00BFBE
:101A300000BF00BF00BF00BF00BF00BF00BF00BFAE
:101A400000BF00BF00BF00BF00BF00BF00BF00BF9E
:101A500000BF00BF00BF00BF00BF00BF00BF00BF8E
:101A600000BF403800BFBDD1206800F47F406C301B
:101A70002060206840F480702060206840F400708E
:101A800020604FF47A5000BF00BF00BF00BF00BF0E
:101A900000BF00BF00BF00BF00BF00BF00BF00BF4E
:101AA00000BF00BF00BF00BF00BF00BF00BF00BF3E
:101AB00000BF00BF00BF00BF00BF00BF00BF00BF2E
:101AC00000BF00BF00BF00BF00BF00BF00BF00BF1E
:101AD00000BF00BF00BF00BF00BF00BF00BF00BF0E
:101AE00000BF00BF00BF00BF00BF00BF00BF00BFFE
:101AF00000BF00BF00BF00BF00BF00BF00BF00BFEE
:101B000000BF00BF00BF403800BFBDD1206820F437
:101B1000007020604FF4FA4000BF00BF00BF00BF5C
:101B200000BF00BF00BF00BF00BF00BF00BF00BFBD
:101B300000BF00BF00BF00BF00BF00BF00BF00BFAD
:101B400000BF00BF00BF00BF00BF00BF00BF00BF9D
:101B500000BF00BF00BF00BF00BF00BF00BF00BF8D
:101B600000BF00BF00BF00BF00BF00BF00BF00BF7D
:101B700000BF00BF00BF00BF00BF00BF00BF00BF6D
:101B800000BF00BF00BF00BF00BF00BF00BF00BF5D
:101B900000BF00BF00BF403800BFBDD1206800F4C7
:101BA0007F406F302060206840F4807020602068A3
:101BB00040F4007020604FF47A5000BF00BF00BFB7
:101BC00000BF00BF00BF00BF00BF00BF00BF00BF1D
:101BD00000BF00BF00BF00BF00BF00BF00BF00BF0D
:101BE00000BF00BF00BF00BF00BF00BF00BF00BFFD
:101BF00000BF00BF00BF00BF00BF00BF00BF00BFED
:101C000000BF00BF00BF00BF00BF00BF00BF00BFDC
:101C100000BF00BF00BF00BF00BF00BF00BF00BFCC
:101C200000BF00BF00BF00BF00BF00BF00BF00BFBC
:101C300000BF00BF00BF00BF00BF403800BFBDD124
:101C4000206820F4007020604FF4FA4000BF00BF0D
:101C500000BF00BF00BF00BF00BF00BF00BF00BF8C
:101C600000BF00BF00BF00BF00BF00BF00BF00BF7C
:101C700000BF00BF00BF00BF00BF00BF00BF00BF6C
:101C800000BF00BF00BF00BF00BF00BF00BF00BF5C
:101C900000BF00BF00BF00BF00BF00BF00BF00BF4C
:101CA00000BF00BF00BF00BF00BF00BF00BF00BF3C
:101CB00000BF00BF00BF00BF00BF00BF00BF00BF2C
:101CC00000BF00BF00BF00BF00BF403800BFBDD194
:101CD000206800F47F406E302060206840F48070FF
:101CE0002060206840F4007020604FF47A5000BFFC
:101CF00000BF00BF00BF00BF00BF00BF00BF00BFEC
:101D000000BF00BF00BF00BF00BF00BF00BF00BFDB
:101D100000BF00BF00BF00BF00BF00BF00BF00BFCB
:101D200000BF00BF00BF00BF00BF00BF00BF00BFBB
:101D300000BF00BF00BF00BF00BF00BF00BF00BFAB
:101D400000BF00BF00BF00BF00BF00BF00BF00BF9B
:101D500000BF00BF00BF00BF00BF00BF00BF00BF8B
:101D600000BF00BF00BF00BF00BF00BF00BF4038C2
:101D700000BFBDD1206820F4007020604FF4FA400D
:101D800000BF00BF00BF00BF00BF00BF00BF00BF5B
:101D900000BF00BF00BF00BF00BF00BF00BF00BF4B
:101DA00000BF00BF00BF00BF00BF00BF00BF00BF3B
:101DB00000BF00BF00BF00BF00BF00BF00BF00BF2B
:101DC00000BF00BF00BF00BF00BF00BF00BF00BF1B
:101DD00000BF00BF00BF00BF00BF00BF00BF00BF0B
:101DE00000BF00BF00BF00BF00BF00BF00BF00BFFB
:101DF00000BF00BF00BF00BF00BF00BF00BF403832
:101E000000BFBDD1206800F47F403A3020602068D8
:101E100040F480702060206840F4007020604FF42F
:101E20007A5000BF00BF00BF00BF00BF00BF00BFAF
:101E300000BF00BF00BF00BF00BF00BF00BF00BFAA
:101E400000BF00BF00BF00BF00BF00BF00BF00BF9A
:101E500000BF00BF00BF00BF00BF00BF00BF00BF8A
:101E600000BF00BF00BF00BF00BF00BF00BF00BF7A
:101E700000BF00BF00BF00BF00BF00BF00BF00BF6A
:101E800000BF00BF00BF00BF00BF00BF00BF00BF5A
:101E900000BF00BF00BF00BF00BF00BF00BF00BF4A
:101EA00000BF403800BFBDD1206820F40070206022
:101EB0004FF4FA4000BF00BF00BF00BF00BF00BF2B
:101EC00000BF00BF00BF00BF00BF00BF00BF00BF1A
:101ED00000BF00BF00BF00BF00BF00BF00BF00BF0A
:101EE00000BF00BF00BF00BF00BF00BF00BF00BFFA
:101EF00000BF00BF00BF00BF00BF00BF00BF00BFEA
:101F000000BF00BF00BF00BF00BF00BF00BF00BFD9
:101F100000BF00BF00BF00BF00BF00BF00BF00BFC9
:101F200000BF00BF00BF00BF00BF00BF00BF00BFB9
:101F300000BF403800BFBDD19DF80010002900F05F
:101F4000A0806846226802F47F4211432160216824
:101F500041F480712160216841F4007121604FF4E7
:101F60007A5100BF00BF00BF00BF00BF00BF00BF6D
:101F700000BF00BF00BF00BF00BF00BF00BF00BF69
:101F800000BF00BF00BF00BF00BF00BF00BF00BF59
:101F900000BF00BF00BF00BF00BF00BF00BF00BF49
:101FA00000BF00BF00BF00BF00BF00BF00BF00BF39
:101FB00000BF00BF00BF00BF00BF00BF00BF00BF29
:101FC00000BF00BF00BF00BF00BF00BF00BF00BF19
:101FD00000BF00BF00BF00BF00BF00BF00BF00BF09
:101FE00000BF403900BFBDD1216821F400712160DC
:101FF0004FF4FA4100BF00BF00BF00BF00BF00BFE9
:1020000000BF00BF00BF00BF00BF00BF00BF00BFD8
:1020100000BF00BF00BF00BF00BF00BF00BF00BFC8
:1020200000BF00BF00BF00BF00BF00BF00BF00BFB8
:1020300000BF00BF00BF00BF00BF00BF00BF00BFA8
:1020400000BF00BF00BF00BF00BF00BF00BF00BF98
:1020500000BF00BF00BF00BF00BF00BF00BF00BF88
:1020600000BF00BF00BF00BF00BF00BF00BF00BF78
:1020700000BF403900BFBDD110F8011F00297FF417
:1020800061AF00200AB0B0BDF1EE100A4FF6FF714B
:10209000C0F2C03120EA010040F04070E1EE100AC9
:1020A00070470000C8200008000000200800000061
:1020B00028020008D0200008080000206806000060
:1020C00048020008000000000100000010000000AD
:04000005080001C529
:00000001FF
